:1000000000800020B1010000DD010000DD010000E2
:10001000DD010000DD010000DD010000DD01000068
:10002000DD010000DD010000DD010000DD01000058
:10003000DD010000DD010000DD010000DD01000048
:10004000351E00000D090000ED030000DD01000079
:10005000DD010000DD010000DD010000DD01000028
:10006000DD010000DD010000DD010000DD08000011
:10007000D1030000DD010000DD010000110A0000D5
:10008000D9090000DD010000DD010000DD010000F4
:10009000DD010000DD010000DD010000DD010000E8
:1000A000DD010000DD010000DD010000DD010000D8
:1000B000DD010000DD010000DD010000DD010000C8
:1000C000DD010000DD010000DD010000DD010000B8
:1000D000DD010000DD010000DD010000DD010000A8
:1000E00010B5054C237833B9044B13B10448AFF372
:1000F00000800123237010BD980000200000000044
:1001000024390000084B10B51BB108480849AFF36B
:1001100000800848036803B910BD074B002BFBD0D3
:10012000BDE81040184700BF00000000243900005F
:100130009C0000209400002000000000154B002BC4
:1001400008BF134B9D46A3F5803A00218B460F460E
:100150001348144A121A03F0D7F90F4B002B00D0A2
:1001600098470E4B002B00D0984700200021040038
:100170000D000D48002802D00C48AFF3008003F0BA
:100180009DF92000290002F00DFC03F083F900BF67
:1001900000000800008000200000000000000000B7
:1001A0009800002030040020000000000000000043
:1001B000064880470649074A074B9A42BEBF51F896
:1001C000040B42F8040BF8E7FFF7B8FFA1030000A7
:1001D000303900000000002098000020FEE700BF3A
:1001E000294AD36A03F47053B3F5805F2AD0B3F57C
:1001F000005F24D0B3F5006F11D0D36803F4E0633F
:10020000B3F5007F3DD020D9B3F5806F37D0B3F57B
:10021000A06F32D0B3F5407F24D0002301E01B4B08
:100220001B68194A1A4910685268C0F3823002F0FC
:100230000F020130B3FBF0F0D04008607047154B5F
:100240001B68EEE74FF40043EBE76BB1B3F5807F3B
:10025000E3D1114B114AD86C114BB0F1985F28BF14
:100260001346DEE70F4BDCE70B4B0F4AD86C0F4B06
:10027000B0F1985F28BF1346D3E70D4BD1E70D4B84
:10028000CFE70D4BCDE700BF00800C4004000020FD
:100290000800002000000020B081E00F40B564009D
:1002A000C0CF6A00809FD500804F120040420F00EF
:1002B000003FAB01406F4001C0D8A7000048704725
:1002C000006CDC02274AD36A03F47053B3F5805FF5
:1002D00024D0B3F5005F1ED0B3F5006F11D0D36802
:1002E00003F4E063B3F5007F39D01AD9B3F5806F1A
:1002F00033D0B3F5A06F2ED0B3F5407F1FD00020D0
:1003000001E0194B1868174B1B68C3F382330133A4
:10031000B0FBF3F07047154B1868F4E74FF400405A
:10032000F1E773B1B3F5807FE9D1114A114BD06C7D
:10033000114AB0F1985F2CBF18461046E3E70F480A
:10034000E1E70B4A0E4BD06C0E4AB0F1985F2CBF20
:1003500018461046D7E70C48D5E70C48D3E70C48B9
:10036000D1E700BF00800C40040000200000002006
:10037000B081E00F40B56400C0CF6A00809FD50017
:10038000804F120040420F00003FAB01406F400120
:10039000C0D8A700014B1868704700BF04000020B8
:1003A000034AD2F8883043F47003C2F888307047AB
:1003B00000ED00E04FF40040704700BF4FF47A704A
:1003C000704700BF014B1868704700BF0000002055
:1003D000044B1B69DA0702D5034A01211170014A57
:1003E0009361704700040140680300200B490A69CB
:1003F000D3070FD50A4810B40A4C03682488013388
:10040000A342036024BF02234B60044B5DF8044BFE
:100410009A617047014B9A61704700BF000001402C
:10042000B8000020B400002030B51C481C4C85B03A
:10043000012101F0C5FA00230A2140F294428DF80F
:1004400001308DF803308DF804308DF805308DF8CB
:1004500006308DF807308DF808308DF809308DF8AA
:100460000A308DF80B308DF80C308DF800308DF897
:100470000210E2616362E3680A4A43F001034FF449
:100480008055E3602046C2F880516946156001F04E
:1004900033FF0123636005B030BD00BF006204007C
:1004A0000004014000E100E010B5194884B00121CA
:1004B00001F086FA1748184A002304218DF801300C
:1004C0008DF803308DF804308DF805308DF8063046
:1004D0008DF807308DF808308DF809308DF80A3026
:1004E0008DF80B308DF80C308DF800308DF802103F
:1004F000C3614362C3684FF4804443F00103C360A7
:100500006946C2F88041146001F0F6FE04B010BDE7
:1005100000820400000C014000E100E0084A10B431
:1005200001210024D061134654625160596ADA698E
:1005300003489142FAD3022343605DF8044B7047AD
:10054000000C01402DE9F043574C87B000250721EE
:1005500004224FF000084FF0000901230646032053
:10056000CDE90489ADF804508DF808508DF8095094
:100570008DF80A508DF80B508DF80C50ADF80650E0
:10058000CDE904898DF808508DF809508DF80A508E
:100590008DF80B508DF80C5001F0D8FCD4F8803059
:1005A00043F08003C4F880304FF4B970FFF7B6FF12
:1005B0004FF4B970FFF7B2FFE36F43F08003E367D6
:1005C0001E20FFF7ABFF0520FFF7A8FF012213460F
:1005D0000320072101F0BAFC2246D2F88830190620
:1005E000FBD50022304BADF80420D3F8880010F082
:1005F0008000FAD12D492C4B4FF6FF720746CA6195
:10060000012402254F624C60D3F888201206FBD5E6
:100610004D604A6A92B2ADF806204F624C60D3F842
:1006200088201206FBD44D604A6A92B2ADF80420CD
:10063000BDF804E0BDF806201FFA8EFE92B2964582
:100640001CD9DDE90489C0F1270204FA02F248EA64
:10065000020849EAE279CDE9048906AAC0F3C40C8C
:10066000944400F0070E1CF8108CCEF1070E04FA2B
:100670000EF248EA0202D2B20CF8102C01302828FF
:10068000C0D19DF808409DF809009DF80A109DF81A
:100690000B209DF80C30707030463470B170F270E1
:1006A000337107B0BDE8F08300600040000C0140EA
:1006B00070B40748074E084D084C0949094A002301
:1006C00033602B60236003600B60136070BC704765
:1006D000D4020020BC000020D8020020C00000206E
:1006E000E0020020DC02002028B9064B1868B0FAAE
:1006F00080F040097047044B1868B0FA80F0400958
:10070000704700BFBC000020D402002038B9084B5D
:100710001868A0F11000B0FA80F040097047054B4E
:100720001868A0F50070B0FA80F04009704700BF6B
:10073000BC000020D402002070B4C8B1012813D13D
:10074000144A1368002B0FDD1349144D0C68601C0C
:10075000013BB0F5007F136008602B5D05D10022DE
:1007600018460A6070BC70470023184670BC70477A
:100770000B4A1368002B0BDD0A490B4E0D686C1CED
:10078000013B102C13600C60735DEED10860ECE748
:100790000346EAE7D4020020E0020020C400002063
:1007A000BC000020D8020020C4020020F0B4B0B188
:1007B000012812D1124A1368B3F5007F0DDA1148EF
:1007C000114E05686C1C0133B4F5007F1360715540
:1007D00008BF0023046008BF0360F0BC70470B4AE9
:1007E00013680F2BF9DC0A4C0A4F2668751C01337D
:1007F000102D1360B9552560EFD12060EDE700BFE3
:10080000D4020020DC020020C4000020BC00002034
:10081000C0000020C4020020F0B52D4883B00121A3
:1008200001F0CEF80320022101F046FB032006214F
:100830000422002301F08AFB032005210422002367
:1008400001F084FB042002460321002301F07EFB1B
:10085000042002460221002301F078FB0320072137
:100860000422012301F072FB012002460346092104
:1008700001F06CFB0120024603460A2101F066FBF1
:10088000012409210094019420460A46002301F026
:1008900021FB0A210094019420460A46002301F01E
:1008A00019FB0C4B0C4A4FF6FF7702264FF40065FC
:1008B000402408200421C3F81C7116601560C3F899
:1008C0008040C3F8A400C3F8A41003B0F0BD00BF7B
:1008D00000D204000060004000E100E00A4AD2F8C3
:1008E0001031D2F814110B401905C2F81C3103D491
:1008F0009A0505D49B0600D47047052001F000BE80
:10090000092001F0FDBD00BF00600040094AD2F897
:100910001031D2F814110B40C2F81C315A0505D41D
:10092000DB0400D470470C2001F0EABD0A2001F07E
:10093000E7BD00BF0060004070B5204D204E0FCDD8
:1009400086B06C460FC495E803004FF4165300259B
:1009500084E803001B48029301218DF8005001F048
:100960002FF8294602200422012301F0EFFA012189
:100970002B460A46022001F0E9FA304601F08AFDD2
:100980003046694601F018FD726D0F4B42F00302CC
:1009900041F6FF717265B164F26C4FF480304FF430
:1009A000004142F00402F264C3F88001C3F88011F0
:1009B00018601960FFF77CFE06B070BD443500007A
:1009C00000C400400012040000E100E001480521DD
:1009D00001F0EABC00C4004010B50C4C0223A36433
:1009E00023695B0600D410BD0120FFF77DFE20B116
:1009F000E36C23F00203E36410BD0120FFF79CFECB
:100A000001462046BDE8104001F074BD00C400401E
:100A100038B50B4C0423A36423691B0600D438BDEE
:100A20000020FFF773FE05460028F8D1204601F0AC
:100A30005BFD01462846BDE83840FFF7B7BE00BF62
:100A400000C4004038B5044602F066FD05460120AA
:100A5000FFF75CFE88B915F0FF0518BF2D1906D009
:100A600014F8011B0120FFF7A1FEAC42F8D1034AA4
:100A7000D36C43F00203D36438BD38BD00C40040DA
:100A800010B5294C00202146024601F057FB2146B3
:100A90000120002201F052FB21460220002201F039
:100AA0004DFB21460320002201F048FB2146042093
:100AB000002201F043FB21460520002201F03EFB0D
:100AC00021460620002201F039FB214607200022A2
:100AD00001F034FB00200246FF2101F099FB0120C8
:100AE000FF21002201F094FB0220FF21002201F0EF
:100AF0008FFB0320FF21002201F08AFB0420FF214D
:100B0000002201F085FB0520FF21002201F080FB7F
:100B10000620FF21002201F07BFB0720FF2100229D
:100B2000BDE8104001F074BB00F00FF010B5314C7F
:100B3000002021464FF0FF3201F000FB214601204A
:100B40004FF0FF3201F0FAFA214602204FF0FF3257
:100B500001F0F4FA214603204FF0FF3201F0EEFAE3
:100B6000214604204FF0FF3201F0E8FA214605202B
:100B70004FF0FF3201F0E2FA214606204FF0FF323B
:100B800001F0DCFA214607204FF0FF3201F0D6FADF
:100B90000020FF214FF0FF3201F03AFB0120FF213E
:100BA0004FF0FF3201F034FB0220FF214FF0FF3203
:100BB00001F02EFB0320FF214FF0FF3201F028FB54
:100BC0000420FF214FF0FF3201F022FB0520FF211E
:100BD0004FF0FF3201F01CFB0620FF214FF0FF32E7
:100BE00001F016FB0720FF214FF0FF32BDE8104057
:100BF00001F00EBB00F00FF010B5274C274907207D
:100C0000002201F09BFA21460620002201F096FA0C
:100C100021460520002201F091FA214604200022FD
:100C200001F08CFA21460320002201F087FA2146C8
:100C30000220002201F082FA21460120002201F068
:100C40007DFA002002464FF0204101F077FA07209C
:100C50000146002201F0DCFA06200721002201F003
:100C6000D7FA05200721002201F0D2FA042007213B
:100C7000002201F0CDFA03200721002201F0C8FA7A
:100C800002200721002201F0C3FA012007210022DF
:100C9000BDE8104001F0BCBA00E00FF000E00F50DA
:100CA00010B501210446224800F08AFE21480321A4
:100CB00000F0E0FE4021204800F068FB012001F038
:100CC00071F801211D4800F07BFE1D4B1D489A6AFA
:100CD00000229A6201F088F90820012101F0B4F99C
:100CE0001020012101F0B0F98020012101F0ACF9C0
:100CF0004FF48070012101F0A7F94FF40070012139
:100D000001F0A2F934B9FFF7BBFE0D4A536E002B78
:100D1000FCD110BD4FF4402001F0E4FA4FF48030D4
:100D200001F084F9084AD36F43F00803D367EAE778
:100D30000043020002001A0060002600003628006E
:100D400000A008408037000000800C402DE9F84FDB
:100D500042F20E739842064600F3A98010F57A7F9E
:100D6000D8BF40F2E73600F3A7804FF00109564A9A
:100D7000556E554B002DFBD14FF0010AC3F860A012
:100D8000504678212A4601F043FA022078212A466B
:100D900001F03EFA032078212A4601F039FA0420B6
:100DA00078212A4601F034FA052078212A4601F0FC
:100DB0002FFA062078212A4601F02AFA0720782106
:100DC0002A4601F025FA414CDFF80881404F96FB96
:100DD000FAF287FB0231D317C3EBA10303EB8303C2
:100DE000A2EB4303B9F1000F5DD19BB238F813B009
:100DF00094F8CB1094F8C4001BF0010F4FD11BF0F6
:100E0000020F94F8CC1094F8C50044D11BF0040FE5
:100E100094F8CD1094F8C60039D11BF0080F94F85F
:100E2000CE1094F8C7002ED11BF0100F94F8CF10FD
:100E300094F8C80023D11BF0200F94F8D01094F838
:100E4000C90018D11BF0400F94F8D11094F8CA00D3
:100E50000DD101350AEB8A0A042D4FEA4A0A04F142
:100E60000E04B4D1184B00221A66BDE8F88F012297
:100E700001F0F6F8EDE7012201F0F2F8E2E70122D5
:100E800001F0EEF8D7E7012201F0EAF8CCE7012201
:100E900001F0E6F8C1E7012201F0E2F8B6E701222D
:100EA00001F0DEF8ABE7032D9FD110239EE74FF052
:100EB000000942F20F765AE7002EA8BF4FF0000952
:100EC000BFF655AF764250E700A0084080350000DD
:100ED000676666665C3500002DE9F843074602F058
:100EE0001BFB5E4A8146566E5C4B002EFBD10122F5
:100EF0001A66FFF781FE5A4CDFF8688136E06A0710
:100F0000217CA07849D42B07617CE0784CD4EA0698
:100F1000A17C20794FD4AB06E17C607952D46A067B
:100F2000217DA07955D42B06617DE07958D4EA055E
:100F3000A17D207A5BD4AB05E17D607A5ED46A0541
:100F4000217EA07A61D42B05617EE07A64D4EA0424
:100F5000A17E207B67D4AB04E17E607B6AD401363E
:100F6000072E07F1010704F11C046DD0B145C8BF7D
:100F70003B78A17B2078CCBF203B002338F813506E
:100F8000EA0766D4AB07E17B6078B8D5012201F0AF
:100F900067F86A07217CA078B5D5012201F060F8D6
:100FA0002B07617CE078B2D5012201F059F8EA06FE
:100FB000A17C2079AFD5012201F052F8AB06E17C8B
:100FC0006079ACD5012201F04BF86A06217DA07949
:100FD000A9D5012201F044F82B06617DE079A6D560
:100FE000012201F03DF8EA05A17D207AA3D5012276
:100FF00001F036F8AB05E17D607AA0D5012201F061
:101000002FF86A05217EA07A9DD5012201F028F8EB
:101010002B05617EE07A9AD5012201F021F8EA04DD
:10102000A17E207B97D5012201F01AF8AB04E17E66
:10103000607B94D50122013601F012F8072E07F1EA
:10104000010704F11C0491D1044B00221A66BDE88B
:10105000F883012201F004F894E700BF00A00840E3
:10106000803500009437000042EA012242EA004045
:10107000704700BF38B5314CE36F43F04003E3677E
:1010800005460520FFF74AFAD4F8803043F04003C4
:10109000C4F88030BC20FFF741FAE36F43F040030F
:1010A000E36722461E24002321E000BF00BF00BFEB
:1010B00000BF00BFD2F8801041F04001C2F880109C
:1010C00000BF00BF00BF00BF00BF00BF00BF00BF28
:1010D00000BF00BF00BF00BF00BF00BF00BF00BF18
:1010E00000BF00BF00BF00BF0133182B22D0D06F5C
:1010F00005FA03F140F040000902D067D5D500BFE2
:1011000000BF00BF00BF00BF00BF00BF00BF00BFE7
:1011100000BF00BF00BF00BF00BF00BF00BF00BFD7
:1011200000BF00BF00BFD2F8801041F04001C2F8FC
:101130008010D4E7013CB6D138BD00BF006000404C
:1011400038B5404CE36F43F02003E3670546C82001
:10115000FFF7E4F9D4F8803043F02003C4F880307E
:10116000C820FFF7DBF9E36F43F02003E367234672
:10117000202400223AE000BF00BF00BF00BF00BF34
:1011800000BF00BF00BF00BF00BFD3F8801041F018
:101190002001C3F8801000BF00BF00BF00BF00BF28
:1011A00000BF00BF00BF00BF00BF00BF00BF00BF47
:1011B00000BF00BF00BF00BF00BF00BF00BF00BF37
:1011C00000BF00BF00BF00BF00BF00BF00BF00BF27
:1011D00000BF00BF00BF00BF00BF00BF00BF00BF17
:1011E00000BF00BF00BF0132182A27D0D86F05FA10
:1011F00002F140F020000902D867BCD500BF00BF53
:1012000000BF00BF00BF00BF00BF00BF00BF00BFE6
:1012100000BF00BF00BF00BF00BF00BF00BF00BFD6
:1012200000BF00BF00BF00BF00BF00BF00BFD3F8BA
:10123000801041F02001C3F88010BBE7013C98D139
:1012400038BD00BF0060004008B500F00F03013B4F
:10125000062B65D8DFE803F02539476464550400A0
:10126000464BDB6A03F46033B3F5803F23D0B3F51C
:10127000003F6DD0B3F5004F4AD0414B984262D049
:10128000404B984209D13D4B9B6AC3F38103022B2B
:1012900017D0032B62D0012B48D1BDE80840FFF7DF
:1012A00089B8364BDB6A03F47053B3F5805F4FD0D7
:1012B000B3F5005F2CD1324B984244D0314B984269
:1012C000E1D0BDE80840FFF77DB82C4A936A03F0EF
:1012D0000303022BEFD0032B1AD0012B38D0936AD3
:1012E000DA0315D4C9E7254A936A03F00C03082BE7
:1012F000E1D00C2B0CD0042B2AD0936ADB0207D44C
:10130000BBE71E4B1B6813F0805301D0002BB4D0F9
:101310001B4B984217D01B4B9842B4D0002008BDFD
:10132000174B98420FD0174B9842ACD0144B9842B1
:101330001BD0144B9842F1D1104B9B6A142033FA06
:1013400000F016D108BD0D4B9B6A03F003039EE726
:101350000B4B9842F7D00B4B984294D0FEF740FFCE
:10136000094B1B680133D84008BD044B10209B6A11
:10137000E5E7BDE80840FFF721B800BF00800C405A
:1013800002001A0003001C007800904338B5C0F337
:101390000313013B0C46062B05D8DFE803F00F04CE
:1013A00004505B9C050038BDA94B984200F0F280C8
:1013B00003F50433984200F0D68038BDFEF77EFF77
:1013C000A44B41F67132DD6BDA635B6803F007030F
:1013D000042B06D8012202FA03F313F0130F40F096
:1013E00010819D4B984240F2B680052299494B6886
:1013F00023F0070313434B600DB10023CB63974ADF
:101400001368013C23F4E03343EA84341460FEF7AC
:10141000E7FE904B41F67132DC6BDA635B6803F0F8
:101420000703042B74D8012202FA03F313F0130FFD
:101430006ED0894B984240F2D78004226CE0874AF4
:10144000B1FA81F49368C4F11F0423F00F031C4325
:10145000946038BDFEF732FF7E4B41F67132DD6B92
:10146000DA635B6803F00703042B06D8012202FA53
:1014700003F313F0130F40F0BF80774B984262D90B
:10148000052274494B6823F0070313434B600DB1E9
:101490000023CB63FEF716FF714BB0FBF4F09842CC
:1014A0004ED9704B0121984294BF4FF480704FF495
:1014B00000706D4B694A19605368B4FA84F423F4E0
:1014C0008073184350605368C4F11F0423F00F0366
:1014D0001C4354609BE7654B984200F0D8806FD95D
:1014E000634B984200F0A380624B984240F09E808C
:1014F0005A4A536DD90740F19080B4FA84F4574AA0
:10150000936EC4F11F0423F003032343936638BD95
:10151000514B98420CD905224E494B6823F00703E2
:1015200013434B60002C3FF43EAF0023CB6338BD28
:10153000514B524A034493428CBF02220322EBE7F1
:1015400000200146B5E74C4B4C4A034493428CBF04
:101550000222032295E7484B484A034493428CBF3A
:101560000222032242E73D4A536DD9070BD5B4FA54
:1015700084F43A4A136FC4F11F0423F0300343EAA2
:101580000413136738BD136D5B06F0D5136D5B064E
:10159000F9D4ECE7314A536DDD070AD5B4FA84F487
:1015A0002E4A136FC4F11F0423F003032343136770
:1015B00038BD136D5806F1D5136D5806F9D4EDE713
:1015C000A3F58223984230D1244A536DDD071DD5FF
:1015D000B4FA84F4214A936EC4F11F0423F0F0039B
:1015E00043EA0413936638BD234B244A03449342D1
:1015F0008CBF002201228FE7174B984266D9042244
:101600003FE7154B984259D90422EFE6136D58076E
:10161000DED5136D5807F9D4DAE7136D5B077FF554
:101620006CAF136D5B07F8D467E738BD38BD0B4A64
:10163000536DDD0724D5B4FA84F4084A936EC4F1DF
:101640001B0423F4405343EA0433936638BD00BFC0
:101650007007160000000C400048E80100800C40B4
:1016600000366E01006CDC027800904360261400A6
:101670006000260060062A00FFDB0BFFFF23F4005A
:10168000136D5807D7D5136D5807F9D4D3E7134A0C
:10169000536DD9070BD5B4FA84F4104A936EC4F194
:1016A0001F0423F4706343EA0423936638BD136D6B
:1016B0005B07F0D5136D5B07F9D4ECE7084B094ADB
:1016C000034493428CBF002201228FE6044B054A5B
:1016D000034493428CBF00220122D2E600800C40DA
:1016E000FFDB0BFFFF23F40000F00F00013806289A
:1016F00052D8DFE800F014243551514604002B4B3A
:10170000DB6A03F46033B3F5803F49D0B3F5003FA3
:1017100044D0B3F5004F0CBF092001207047234B84
:10172000DB6A03F47053B3F5805F37D0B3F5005F25
:1017300036D0B3F5006F0CBF0420052070471B4B5B
:10174000986A00F00300022829D003282AD0012833
:1017500024D09B6A13F4803F0CBF01200A207047FD
:10176000124A936A03F00C03082B19D00C2B19D0E2
:10177000042B13D0936A13F4801F0CBF01200A209E
:1017800070470A4B1B6813F080530DD0B3F1805F94
:101790000CBF0920012070470020704703207047CC
:1017A00002207047062070470720704700800C40D9
:1017B00000F47810B0F5B01F08B500F093800ED893
:1017C000B0F5402F7ED021D8B0F5003F76D0B0F5EF
:1017D000802F00F0B08000287BD0002008BDB0F53D
:1017E000081F00F09A8039D8B0F5D01F61D0B0F54D
:1017F000E01F72D0B0F5C01FEFD16448FFF724FDA1
:10180000634B1B6FC3F30113D84008BDB0F5801FB5
:1018100037D0B0F5A01F6ED0B0F5602FDDD15C4B96
:101820005B6903F4E063B3F5007F00F09E8040F253
:101830008A80B3F5C06F00F0A280B3F5E06F00F0CE
:10184000A080B3F5407FC8D1524A534BD06C534A65
:10185000B0F1985F34BF1846104608BDB0F5201FA0
:1018600018D0B0F5281F4FD0B0F5181FB5D14C488F
:10187000FFF7EAFC464B9B6EC3F301330433D840B9
:1018800008BD4748FFF7E0FC414B9B6EC3F30313D1
:10189000D84008BD4248FFF7D7FC3D4B9A6EDB6F3E
:1018A000C2F3013203F00703D0400133B0FBF3F081
:1018B00008BD3B48BDE80840FFF7C6BCBDE808408E
:1018C000FEF78EBC324A136813F0805346D0002BCB
:1018D00083D0BDE80840FEF7F5BC2C48BDE80840C1
:1018E000FFF7B2BC2948FFF7AFFC294B1B6F03F091
:1018F0000303D84008BD2A48FFF7A6FC244B9B6E83
:10190000C3F30323D84008BD2548FFF79DFC204BB7
:101910009B6E03F00303D84008BD2248FFF7E4FEA6
:10192000032817D00928D4D002287FF456AFBDE889
:101930000840FEF747BDFEF7C5FC154B9B6803F05A
:101940000F03D84008BDF3B1B3F5807F7FF445AFF6
:10195000154808BDBDE80840FEF72CBD536903F4E7
:10196000E063B3F5007F7FF462AF0A4A0F4BD06C9F
:101970000F4AB0F1985F34BF1846104608BD0D48B5
:1019800008BD0D4808BD0D4808BD00BF03001C0080
:1019900000800C40B081E00F40420F00804F1200E9
:1019A00002001A0007232200C0D8A700C0CF6A0097
:1019B00040B56400003FAB01406F4001809FD500FF
:1019C00030B5C0F30323013B83B00446092B0CD888
:1019D000DFE803F01C1E200B0B0D190B0B051B4D34
:1019E000C4F304342C44A400216003B030BD184D6E
:1019F0000120184A536DDB07C4F30434F2D4136D8D
:101A00001842FCD1EEE7144D1020F2E7134DE7E742
:101A1000134DE5E70191FEF7E3FB124B0199984264
:101A20000BD800200546104B0A4A1D6053680F4D25
:101A300023F4807318435060D2E70D4B0125984280
:101A400094BF4FF480704FF40070ECE7C003E410D3
:101A5000C002E41000800C400003E4104000E410D9
:101A60002002E41000366E01780090430002E4107A
:101A7000006CDC0238B500F00F04631E062B0ED894
:101A8000DFE803F02E14140D0D0E0400032900F0FE
:101A90009880092900F0CB80022900F0A08038BD91
:101AA000072926D0092900F0A98038BD0139092964
:101AB000F5D801A353F821F0A31C0000BF1C0000BF
:101AC0000F1D00009F1A00009F1A0000D71C000085
:101AD0009F1A00009F1A00009F1A0000251D000099
:101AE00002390329DBD8DFE811F0C2000A00A9009F
:101AF000C7009E4A136823F08053136038BD9C4A88
:101B00000324402399490B621368002BFCD0FEF795
:101B1000D5FB984B41F67132DD6BDA635B6803F0FD
:101B20000703042B06D8012202FA03F313F0130F64
:101B300040F0AD80904B984269D905228D494B68A1
:101B400023F0070313434B600DB10023CB63874B96
:101B50008A485C62FFF72CFE894B984254D9894B26
:101B60000121984294BF4FF480704FF40070864B6F
:101B70007E4A1960536823F4807318435060FEF75F
:101B80002FFB7C4B41F67132DC6BDA635B6803F050
:101B90000703042B05D8012202FA03F313F0130FF5
:101BA0007AD1754B98423AD9052272494B6823F095
:101BB000070313434B60002C3FF471AF0023CB634A
:101BC00038BD6A4B6A4A402119621368002BFCD069
:101BD000664A60235362D36A9903FCD538BD634BD0
:101BE0006A4A4FF4807119621368002BFCD05F4A77
:101BF00040235362D36AD803FCD538BD5B4A1368CF
:101C000043F08053136038BD00200146AFE7604BBE
:101C1000604A034493428CBF022203228EE75C4B4E
:101C20005C4A034493428CBF02220322BDE74F4A21
:101C300020235362D36A1B04FCD538BD524B4B4C56
:101C400001221A60636843F480736360FEF7A2FBAD
:101C5000494B514A9842236896BF23F0600343F0F2
:101C6000600343F020032360022404234AE7474A29
:101C700004244FF4807345E7434B3C49474A012411
:101C80001C604B6843F480734B6023463AE73A4B41
:101C9000984257D9042251E7374B98425AD9042227
:101CA00083E7002002460146022C41D02F498A6A70
:101CB00022F4801323F00C0303438B6238BD2B4BBB
:101CC000324A4FF4807119621368002BFCD008204F
:101CD00000220221E8E7FEF783FA294B984241D916
:101CE000284B0125984294BF4FF480724FF4007244
:101CF000254B1E491D604B68294D23F48073134307
:101D000001224B600C202A6003210022CCE7174BF4
:101D1000174A402119621368002BFCD004200022CE
:101D20000121C1E74FF480104FF480320021BBE75E
:101D30000E48836A23F480330A4323F003031343DA
:101D4000836238BD124B134A034493428CBF002276
:101D50000122F3E60E4B0F4A034493428CBF00224C
:101D6000012222E700221546C2E700BF00800C4096
:101D70009C05904300000C400048E801004302002D
:101D800000366E01006CDC0278009043A40590439D
:101D9000FFDB0BFFFF23F4008C0590438405904389
:101DA00010089043054A936D1B0706D4D36F00F0CB
:101DB000070023F007031843D067704700800C40EA
:101DC00010B4042806D8DFE800F0231B17081F0012
:101DD000124A13625DF8044B704711480223012434
:101DE0000029F5D00D4B1C62002AF3D00368002BAC
:101DF000FCD05DF8044B70470A4808230424EFE741
:101E0000094880234024EBE7084820231024E7E713
:101E100007484FF400734FF48074E1E700800C40F2
:101E2000840590438C0590439C0590439405904312
:101E3000A40590431D4A1E4B41F20C011B685158EA
:101E40002DE9F0471646926B1A4F0B4003EA020445
:101E500023EA02084FF00209FCB100254FF0010A05
:101E6000E3070AFA05F214D5B3683A6003EB0513E9
:101E70002846DB686BB1197AD3F800C081F0010203
:101E8000003118BF01211A72BCF1000F01D05A684D
:101E9000E047640805F10105E2D1B9F1010F03D073
:101EA0004FF001094446D7E7BDE8F08700200C4019
:101EB00000300C4008300C4000EBC000800000F106
:101EC000804000F5C040036823F00303194301601C
:101ED000704700BFF0B5072A9DF814509DF81840D0
:101EE0001DD9DFF864E0A2F108018900DEF8006086
:101EF00007278F40884026EA07010843CEF80000F4
:101F00000E490F4E11448900012000FA02F20B60C5
:101F1000C1F88050C6F81C21C1F80041F0BD094F3E
:101F20004FEA820E3E68072101FA0EF100FA0EF028
:101F300026EA010108433860E2E700BF4008831049
:101F4000006000400061004004610040F0B5C40042
:101F50004AB1B3B32518AD0005F1804505F5C0457C
:101F600001268E402E612518AD0005F18045072918
:101F700005F5C04515D84FEA810E6F680F2606FAA1
:101F80000EF627EA060702FA0EF63E436E603AB9ED
:101F90002044F3B9134B8000034401228A405A6065
:101FA000F0BD01F18046083EAF68B6004FF00F0E5D
:101FB0000EFA06FE27EA0E0702FA06F63E43AE6068
:101FC000E5E72618074DB600354401268E406E60C1
:101FD000C9E7800000F1804000F5C04001238B403C
:101FE0000361F0BD106000400F49D0F80CC04A6892
:101FF000F0B5D0F804E0077A467A048A0D680078D4
:1020000022F4830323F01F034CEA0E0213433B43E5
:10201000334325F0010223430A604B6018B10B687B
:1020200043F001030B60F0BD00A00840054B054ADA
:102030005B68B0F5803F23F4803308BF43F48033FE
:102040005360704700A00840044A936819B923EA16
:1020500000009060704718439060704700A00840EF
:1020600007280BD8DFE800F00B121A2229313904B7
:102070001F293FDD224B0B449B001A6070471F292C
:1020800033DC204B0B449B001A6070471F29D4BFE0
:102090001D4B1E4B0B449B001A6070471F29D4BF79
:1020A0001B4B1C4B0B449B001A6070471F291CDD07
:1020B000194B0B449B001A6070471F29D4BF174B64
:1020C000174B0B449B001A6070471F29D4BF154B58
:1020D000154B0B449B001A6070471F29D4BF134B4C
:1020E000134B0B449B001A607047124B0B449B0030
:1020F0001A607047104B0B449B001A60704700BF7A
:10210000E005C5100002C5102002C5108002C510F0
:102110004002C510A002C510C002C5106006C5105F
:102120008005C5108006C510A005C510A006C51005
:10213000C005C5106002C510C006C51010B4072840
:102140000ED8DFE800F0101C28343F4B57042F480E
:10215000D0F8D8300A4023EA01010A43C0F8D82059
:102160005DF8044B7047294C206C01EA020320EA19
:10217000010141EA030222645DF8044B7047234CDD
:10218000606C01EA020320EA010141EA0302626491
:102190005DF8044B70471D4CA06C01EA020320EA75
:1021A000010141EA0302A2645DF8044B7047174C39
:1021B000E06C01EA020320EA01021A43E2645DF8DE
:1021C000044B704711485DF8044BD0F8CC300A40FE
:1021D00023EA01010A43C0F8CC2070470B485DF8A0
:1021E000044BD0F8D0300A4023EA01010A43C0F87A
:1021F000D020704705485DF8044BD0F8D4300A4031
:1022000023EA01010A43C0F8D420704700A0084027
:1022100010B407280ED8DFE800F0101C28343F4B1C
:1022200057042F48D0F8C0300A4023EA01010A437E
:10223000C0F8C0205DF8044B7047294C206D01EABE
:10224000020320EA010141EA030222655DF8044B22
:102250007047234C606D01EA020320EA010141EA64
:10226000030262655DF8044B70471D4CA06D01EAE6
:10227000020320EA010141EA0302A2655DF8044B72
:102280007047174CE06D01EA020320EA01021A438D
:10229000E2655DF8044B704711485DF8044BD0F8D7
:1022A000B4300A4023EA01010A43C0F8B420704761
:1022B0000B485DF8044BD0F8B8300A4023EA01011E
:1022C0000A43C0F8B820704705485DF8044BD0F8C1
:1022D000BC300A4023EA01010A43C0F8BC20704721
:1022E00000A00840034A536823F4E01318435060E9
:1022F000704700BF00A008402DE9F04F0C780CB9E2
:1023000002234360CA7891F802B00B7A91F801A0D9
:1023100091F8069091F8078091F809C091F80AE0C9
:10232000CF7A0E794D79097B120442EA0B6B4BEAA6
:10233000030343EA8929BAF1000F14BF40230023A5
:1023400049EA0828BCF1000F14BF8022002248EAA5
:102350000303BEF1000F43EA020314BF2022002250
:10236000002F43EA020314BF10220022002E43EA8A
:10237000020314BF4FF400560026002D43EA060363
:1023800014BF4FF080520022002942EA030214BF1A
:102390000823002313430022426203600CB101238F
:1023A0004360BDE8F08F00BFCB4303F005035B0043
:1023B000C360C160704700BF314AF8B504460023CE
:1023C00040F6AA6741F2050641F6F9709442E760CB
:1023D0000D4623606660A3606361E364A064636587
:1023E0004AD0284AA365944243D0274B9C4240D010
:1023F000AB7C1BB1236843F080432360EB7C1BB1B3
:102400002B7D43F01003A365298A6B7BEA896868FA
:10241000AE682F7B0B431343636018B3202F26D085
:102420001CD9402F18D0602F13D104232168174ADC
:1024300021F06001216006FB03F38000216800EBBE
:102440005300B0FBF3F3043B9B011A400F4327609A
:1024500062612B78E360F8BD0623E7E7002FF8D12F
:102460001023E3E70A48FFF7A3F9202FD8D1082368
:10247000DCE70023E365BBE72365A365B8E700BF9E
:1024800000C0004000C4004000C80040C0FF1F0062
:1024900040810400114A002330B441F6F97140F63E
:1024A000AA6541F205049042C56003604460836000
:1024B0004361C364816443650CD0094A83659042DB
:1024C00004D0084B984201D030BC70470023C3654C
:1024D00030BC7047036530BC8365704700C0004066
:1024E00000C4004000C8004003691B06FCD5C06959
:1024F000C0B2704703695B06FCD54163704700BFFB
:102500003B4B00220A281A7010D009280DD13949F6
:1025100039480B78013310B4DBB201240A2B047064
:102520005DF8044B94BF0B700A707047314B334A0F
:102530001B78012111700A2B0CD8DFE803F00C1571
:102540001520494E2530394106002D4A13780133B4
:10255000DBB2137070472B4B1A78002A42D0012A45
:1025600043D000221A707047274B1A78002A39D0BE
:10257000012A3AD0022AF4D103221A707047234A62
:1025800013780A3313707047214A13780133DBB292
:1025900013701378172BC8D90023137070471D4A86
:1025A00013780233DBB2137013783B2BBDD9F3E7FA
:1025B000194B1A780E2A0CBF10220E221A7070477F
:1025C000164B1A78072A0CBF082207221A70704788
:1025D000134A13780A3313707047124A13780A3378
:1025E0001370704701221A70704702221A707047E8
:1025F00030030020010300205203002003030020C9
:102600005103002002030020400300202900002085
:10261000120000207A030020130000201000002088
:102620002800002011000020B54A137810B50A2BAD
:1026300000F2C680DFE803F01A2E3BB494A4485A97
:102640006C7E0600FEF71CFAFEF71AFAAD4BAE4A96
:1026500003CB1B781060137210465160FEF73CFCF0
:10266000AA4BBDE810401878FEF770BBFEF708FAD9
:10267000A74B1B78012B00F04081C0F0AE80022BED
:1026800040F0A180A34AA04B1068127918601A711B
:102690001846E3E7FEF7F4F99F4B1B78032B00F293
:1026A0009280DFE813F01B010B01FB00EB00FEF74B
:1026B000E7F9994B1B78032B00F28580DFE813F0D4
:1026C000CF00BD00AD009D00FEF7DAF9934B8E4AB6
:1026D00003CB1B781060137210465160FEF7FCFBB1
:1026E0008F4BBDE810401878FEF730BBFEF7C8F9F5
:1026F0008C4B854A03CB1B881060138110465160B8
:10270000FEF7EAFB884BBDE810401878FEF71EBBC9
:10271000FEF7B6F9854B7C4A03CB1B781060137229
:1027200010465160FEF7D8FB814BBDE81040187889
:10273000FEF70CBBFEF7A4F9FEF7A2F97D4B724A37
:1027400003CB1C889B7810601481104693725160F3
:10275000FEF7C2FB784BBDE810401878FEF7F6BADA
:10276000FEF78EF9754B684A03CB10605160104636
:10277000FEF7B2FB724BBDE810401878FEF7E6BAE0
:10278000FEF77EF96F4B604A03CB10605160104634
:10279000FEF7A2FB6C4BBDE810401878FEF7D6BAE6
:1027A000FEF76EF9694B584A03CB10605160104632
:1027B000FEF792FB664BBDE810401878FEF7C6BAEC
:1027C0000023137010BD634B4F4A03CB1060516060
:1027D0001046BDE81040FEF77FBB5F4A4A4B1068C9
:1027E000127918601A711846FEF776FB5B4BBDE84C
:1027F0001040D3E90001FEF7A9BA594A424B1068CC
:10280000928818609A801846FEF766FB554BBDE823
:102810001040D3E90001FEF799BA534A3A4B1068C9
:10282000928818609A801846FEF756FB4F4BBDE819
:102830001040D3E90001FEF789BA4D4A324B1068C7
:10284000918892791860998018469A71FEF744FB36
:10285000484BBDE81040D3E90001FEF777BA464A7D
:10286000294B1068928818609A801846FEF734FB4E
:10287000424BBDE810401868FEF768BA404A224B48
:102880001068928818609A801846FEF725FB3D4B29
:10289000BDE81040D3E90001FEF758BA3A4A1A4B96
:1028A0001068928818609A801846FEF715FB374B1F
:1028B000BDE81040D3E90001FEF748BA344A124B94
:1028C0001068928818609A801846FEF705FB314B15
:1028D000BDE81040D3E90001FEF738BA2E4A0A4B92
:1028E0001068928818609A801846FEF7F5FA2B4B0C
:1028F000BDE810401868FEF729BA294B1FE700BF52
:102900000103002094380000080400205103002037
:1029100002030020B438000040030020703800009B
:10292000120000207C3800007A0300206438000088
:1029300013000020883800001000002054380000E8
:10294000280000205C380000110000204C380000F6
:1029500029000020BC380000A03800001803002027
:10296000FC38000058030020F43800000803002061
:10297000EC38000060030020E4380000F002002082
:10298000DC38000028030020D4380000F8020020C2
:10299000CC38000038030020C43800004803002071
:1029A000A83800002DE9804801218BB00A4602209A
:1029B000FFF706FA11200421FFF75CF8AA48AB4D97
:1029C000AB4CAC4EAC4FDFF82893DFF828A3DFF810
:1029D00028B3DFF828830121FEF7D8FC0421A7489B
:1029E000FEF7D4FC08230293FDF716FF04220092A1
:1029F000FDF75AFDFDF718FDFDF79EFFFDF7E6FF19
:102A00000020FEF74DF9029B009AC5F8A43002930E
:102A1000C5F8A4200092FEF789F8FEF731F8029B72
:102A2000009AC5F8A0309648C5F8A020C5F8A420A3
:102A3000C5F8A430FEF750FA924B934D07CB1B8894
:102A40002860AB8128466960AA60FDF7FBFF8F4BC9
:102A500018788F4B19788F4B1A78FEF705FB8E4B41
:102A600018601868FEF706FB894B1878874B1978B1
:102A7000884B1A78FEF7F8FA884B18601868FEF74A
:102A80005FFB00252378002BFCD0794B4FF0000230
:102A90001A7033780133DBB233703378092B40F28C
:102AA000C781744B74491D70D7E90023013243F18B
:102AB0000003C7E900237A4B794A1B780133DBB264
:102AC0001370D7E90023002B08BF3C2AC0F0A38075
:102AD00000220023C1E90023724B724A1B780133A4
:102AE000DBB2137013781E2B00F0A78113783B2BF9
:102AF00000F0A3816B4B6B4A1B783B2B5CD96A4B74
:102B000015701B78684A0133DBB213701378172BEA
:102B100052D9664B15701B78644A0133DBB21370CF
:102B2000634BD3E90001634B1A78002300F0E4F90A
:102B3000614BC3E90001614B6149D3E90023C1E95D
:102B40000023604BD3E900015F4BC3E90001584B00
:102B500000200021C3E90001584BC3E90001594B93
:102B60004FF4FA700021C3E90001584BD3E900018A
:102B7000504B1A78002300F0BFF9554BC3E9000110
:102B8000544B5549D3E90023C1E90023534BD3E902
:102B90000001534BC3E900014C4B00200021C3E965
:102BA00000014C4BC3E900014C4B4FF47A700021FB
:102BB000C3E900013F4B1D703B4B3B481A78494B22
:102BC00048491B789A4207D3474B027809781B780B
:102BD0000B449A42C0F24E81002001460246FEF7A5
:102BE00043FA2D4B18601868FEF744FA002001469E
:102BF0000246FEF739FA294B18601868FEF7A0FA6A
:102C0000294B284A1B781278642101FB032237499B
:102C1000D317C1E90023D7E90023002302F0010202
:102C2000134340F00581012389F8003008A88AF891
:102C300001508AF800508AF802508AF803508AF846
:102C40000450FDF77FFC089A9DF824302349CAF808
:102C500000208AF804309AF800C09AF801209AF807
:102C600002E09AF803304BE05000020000600040A0
:102C700068030020780300208003002040810400C6
:102C8000043900000C3900008803002028000020CF
:102C90002900002011000020140000200C0000205A
:102CA000300300207A03002012000020510300208E
:102CB000200300207903002028030020E8020020E0
:102CC000F8020020180000203803002070030020C4
:102CD00058030020100300200803002020000020DB
:102CE00060030020100000201300002018030020C3
:102CF00000030020280400200303002052030020CA
:102D000089F80050D1E9000102EB0C2203EB0E2EF2
:102D1000CDE906017046D1170B46C117CDE9040174
:102D2000CDE902016249DFF8CCE1C1E90023CDE938
:102D30000023DDE904235F49C1E90023DDE9002325
:102D4000DDE906018B4208BF824203D2CEE90023AF
:102D5000DDE900235849DFF860E1D1E9000199423B
:102D600008BF904201D2CEE90023544BDFF84CE17A
:102D7000D3E90023DDE90201994208BF904205D260
:102D800002460B46CEE90023DDE902014C4BDFF899
:102D900030E1D3E900238B4208BF824203D20246CE
:102DA0000B46CEE900239BF8003053B998F8003069
:102DB0003BB9D7E900013C22002300F09DF8134302
:102DC00005D1FFF731FC8BF8005088F80050D7E9A7
:102DD0000023002302F0030213437FF453AE337841
:102DE00003F0FF02002B7FF44DAE364B1B781D2BFA
:102DF0007FF648AE344B34491B78DBB2012B4DD003
:102E000051D3022B4AD00A702F4B2F4A1B78013323
:102E1000DBB213701378022B2A4B88BF15701B7816
:102E2000284A1E2B84BF1E231370FFF7FDFB29E6E3
:102E300099F80030002BB6D0F8E6244BD3E9000116
:102E40001C4BD3E9002312184B412049C1E9002350
:102E5000174B1F49D3E90023D1E9000112184B4158
:102E60001B49C1E900231B4B1A4A1B780133DBB213
:102E700013703FE6184B1878184B1978184B1A78CE
:102E8000FEF7F2F8174B18601868FEF7F3F8134BCB
:102E90001878114B1978124B1A78AAE612490B7060
:102EA000124B1A70B0E7104B1A70114B1A70ABE747
:102EB000F00200204803002010030020180000202A
:102EC000E8020020300300205003002020030020EF
:102ED0007003002079030020280000202900002032
:102EE00011000020140000200103002040030020F6
:102EF000020300202000002053B94AB9002908BF6E
:102F000000281CBF4FF0FF314FF0FF3000F03CB8FD
:102F100082B0EC462DE9005000F01EF8DDF804E028
:102F200002B00CBC704700BF2DE9F041069C15466D
:102F300006460F46984600F029F805FB01F300FB12
:102F40000838A5FB0023B21A434467EB0303C4E926
:102F50000023BDE8F08100BF2DE9F041069C9046BA
:102F600006460F461D4600F05FF900FB05F5A0FB85
:102F7000082308FB0155B21A2B4467EB0303C4E98D
:102F80000023BDE8F08100BF704700BF00292DE994
:102F9000F043C0F2A6800026002BC0F29C80884639
:102FA00094469E46154604460F46002B3DD18A4264
:102FB00059D9B2FA82F33BB1C3F120029F4020FA03
:102FC00002F29D4017439C40290C220CB7FBF1FEF6
:102FD000A8B201FB1E7742EA074700FB0EF3BB4293
:102FE0000AD97F190EF1FF3280F00581BB4240F211
:102FF0000281AEF1020E2F44FF1AA4B2B7FBF1F327
:1030000001FB137744EA074700FB03F0B84208D9F5
:103010007F1903F1FF3280F0F080B84240F2ED807A
:10302000023B43EA0E43002203E08B420FD9002209
:103030001346341C18BF012460424FF0000565EBB5
:1030400045015840514000196941BDE8F083B3FA89
:1030500083F2002A40F086808B4202D3844500F23E
:10306000DB800123E5E712B90123B3FBF2F5B5FAE2
:1030700085F000283BD1781B4FEA154E1FFA85FCDE
:103080000122B0FBFEF8210C0EFB180741EA0747AE
:103090000CFB08F3BB4207D97F1908F1FF3102D2BC
:1030A000BB4200F2BD808846FF1AA4B2B7FBFEF314
:1030B0000EFB137744EA07470CFB03FCBC4507D91A
:1030C0007F1903F1FF3102D2BC4500F2A7800B4605
:1030D00043EA0843ADE752426FEA060663EB430357
:1030E0005DE7404261EB41014FF0FF3654E7C0F12C
:1030F000200224FA02F107FA00F385404FEA154E48
:10310000D7401943B7FBFEF20B0C0EFB12771FFAE8
:1031100085FC43EA07430CFB02F79F4204FA00F4E4
:1031200007D95B1902F1FF3074D29F4272D9023A7B
:103130002B44DF1B89B2B7FBFEF80EFB187341EA84
:1031400003430CFB08F79F4208D95B1908F1FF31D4
:103150005CD29F425AD9A8F102082B44D81B48EAF6
:1031600002428EE7C2F120032CFA03F10EFA02FEAE
:1031700020FA03F741EA0E0E08FA02F028FA03F1EA
:103180004FEA1E453843B1FBF5F8030C05FB181157
:103190001FFA8EF743EA014107FB08F38B420CFA52
:1031A00002FC09D911EB0E0108F1FF3930D28B4234
:1031B0002ED9A8F102087144C91A80B2B1FBF5F307
:1031C00005FB131140EA014107FB03F78F4208D9C1
:1031D00011EB0E0103F1FF3016D28F4214D9023BDE
:1031E000714443EA0843C91BA3FB0C89494509D331
:1031F00005D000221DE79646FEE6134611E79440EF
:103200004445F6D2013BF4E70346EAE78846A5E7E2
:10321000C846D1E702468CE713460AE7023B57E768
:10322000A8F102082F443FE72DE9F041002B44D1DB
:103230008A42154604464FD9B2FA82F70E464FB17C
:10324000C7F12003B94020FA03F602FA07F50E434E
:1032500000FA07F44FEA154E230CB6FBFEF0AFB2AE
:103260000EFB106143EA014307FB00F1994209D9C3
:103270005B1900F1FF3280F0EC80994240F2E98066
:1032800002382B445A1AA4B2B2FBFEF30EFB1322EF
:1032900044EA024207FB03F7974208D9521903F1A7
:1032A000FF3180F0D880974240F2D580023B43EA5C
:1032B000004000263146BDE8F0818B4247D8B3FA82
:1032C00083F6002E48D18B4202D3824200F2CD8099
:1032D00001203146BDE8F08112B90125B5FBF2F5B8
:1032E000B5FA85F8B8F1000F77D14A1B4FEA154EB1
:1032F000AFB20126B2FBFEF0230C0EFB102143EA15
:10330000014107FB00F38B4207D9491900F1FF3255
:1033100002D28B4200F2BA801046C91AA4B2B1FBA5
:10332000FEF30EFB131144EA014407FB03F7A74227
:1033300008D9641903F1FF3280F08F80A74240F270
:103340008C80023B43EA00403146BDE8F081002614
:1033500030463146BDE8F081C6F1200422FA04F57A
:10336000B3402B4320FA04FC01FA06F721FA04F5D6
:103370004FEA134E4CEA0707B5FBFEF8390C0EFB7B
:1033800018551FFA83FC41EA05450CFB08F1A942D8
:1033900002FA06F204D9ED1808F1FF3467D3A0460B
:1033A0006D1ABFB2B5FBFEF40EFB145547EA05419A
:1033B0000CFB04FC8C4504D9C91804F1FF355CD31F
:1033C0002C4644EA0844CCEB0101A4FB02239942B9
:1033D00048D344D0204600266CE7C8F1200401FA07
:1033E00008F305FA08F520FA04F7E1404FEA154E14
:1033F0001F43B1FBFEF63A0C0EFB16111FFA85FCBB
:1034000042EA01430CFB06F29A4200FA08F407D99B
:103410005B1906F1FF3137D29A4235D9023E2B446F
:103420009B1ABFB2B3FBFEF00EFB103347EA034317
:103430000CFB00F1994207D95B1900F1FF3221D250
:1034400099421FD902382B445A1A40EA0646674669
:1034500050E7104616E70B4629E7134672E7B040DF
:103460009042B7D2601E002624E7304622E7A942E8
:1034700095D9A8F102081D4492E78C45A0D9023CD9
:1034800019449EE71046DFE70E46C9E70238294493
:1034900043E700BF08B5074B044613B10021AFF363
:1034A0000080054B1868836A03B19847204600F0F6
:1034B0003BF800BF000000002039000070B50E4B43
:1034C0000E4CE41AA41000251E46A54204D056F85E
:1034D000253098470135F8E700F028F8084C094BEB
:1034E000E41AA41000251E46A54204D056F8253043
:1034F00098470135F8E770BD8C0000208C00002053
:10350000900000208C00002002440346934202D029
:1035100003F8011BFAE77047034613F8012B002A52
:10352000FBD1181A01387047FEE700BFF8B500BF9D
:10353000F8BC08BC9E467047F8B500BFF8BC08BC94
:103540009E467047050000000000000000C2010018
:103550000005000000100000000000003F00060011
:103560005B004F0066006D007D0007007F006F006C
:1035700077007C0039005E00790071004000000097
:1035800001010507070304020302040605060D0EE8
:103590000E0E0D0D0D0D0E0E0E0E0D0D010105077B
:1035A000070304020302040605060F1010100F0F94
:1035B0000F0F101010100F0F010105070703040271
:1035C0000302040605061112121211111111121232
:1035D0001212111101010507070304020302040678
:1035E0000506131C1C1C131313131C1C1C1C131387
:1035F00000010507060203010302040604051D1E5F
:103600001E1E1D1D1D1D1E1E1E1E1D1D000105074B
:10361000060203010302040604051F2020201F1FC9
:103620001F1F202020201F1F010105070703040280
:103630000302040605062122222221212121222221
:103640002222212107050201030604232323232329
:10365000232307050201030604242424242424240C
:10366000070502010306042525252525252507052F
:103670000201030604262626262626260001070226
:10368000062727272727000000000000000013124C
:1036900011100F0E0D0C0000000021252426010141
:1036A0000304040203020D0E0D0D0E0D0E0E01019A
:1036B0000304040203020F100F0F100F101001017A
:1036C000030404020302111211111211121201015A
:1036D000030404020302131C13131C131C1C00011B
:1036E0000203040103021D1E1D1D1E1D1E1E0001DE
:1036F0000203040103021F201F1F201F20200101BD
:10370000030404020302212221212221222205078F
:103710000704040605060E0E0D0D0E0E0D0D050711
:1037200007040406050610100F0F10100F0F0507F1
:1037300007040406050612121111121211110507D1
:103740000704040605061C1C13131C1C1313050791
:103750000603040604051E1E1D1D1E1E1D1D050755
:1037600006030406040520201F1F20201F1F050735
:10377000070404060506222221212222212100001D
:1037800001000000030040000C00000000000000E9
:10379000000000000000001180020000000002068E
:1037A0000000200039000F000000401500204004F8
:1037B000001000223F0006005B044F0466046D0405
:1037C0007D0407007F046F0400000000000A000071
:1037D00080200000FFFF7704790A3900B0207900CB
:1037E00071007D04760406000E00700A3800B602EF
:1037F000B6083F0073043F08730C6D0401113E00CE
:1038000030223628802A6E040922390080080F00F1
:1038100001000800000158107C0458005E04582084
:1038200071040C0C740404000E00700C3800541465
:1038300054045C04730467045004080C78001C00F2
:1038400010201428802A0C0848200000525F494E9E
:1038500054454E00475F494E54454E00425F494E25
:1038600054454E004C45445F6379632E00000000D0
:103870004872735F6F66662E000000004D696E73BC
:103880005F6F66662E00000053746172745F6F662E
:10389000662E00004461795F6F66662E00000000AE
:1038A00054696D650000000053746172745F74693F
:1038B0006D6500004461797300000000496E766117
:1038C0006C696400545F637572000000545F6D6939
:1038D0006E000000545F6D6178000000545F6176F7
:1038E00067000000485F637572000000485F6D6903
:1038F0006E2E0000485F6D6178000000485F6176C1
:103900006700000048454C4C4F000000694120779B
:10391000696C6C20776F726B0A0000004300000036
:083920002C0000200000000053
:0839280014C8FF7F010000003C
:1039300000800000006CDC02809FD500FFFFFF00CC
:1039400007FF0710FFFFFF00F40100000000000068
:10395000E803000000000000FFFF0000000000007E
:103960000000000000000000000000000000000057
:103970000000000000000000000000001C390000F2
:103980000000000000000000000000000000000037
:103990000000000000000000000000000000000027
:1039A0000000000000000000000000000000000017
:1039B0000000000000000000000000000501000001
:0839C000E1000000000000001E
:04000003000001B147
:00000001FF
