S0170000736869745F74617265656E5F696465612E73333755
S113000000800020B1010000DD010000DD010000DE
S1130010DD010000DD010000DD010000DD01000064
S1130020DD010000DD010000DD010000DD01000054
S1130030DD010000DD010000DD010000DD01000044
S1130040251D000005090000ED030000DD0100008E
S1130050DD010000DD010000DD010000DD01000024
S1130060DD010000DD010000DD010000D508000015
S1130070D1030000DD010000DD010000090A0000D9
S1130080D1090000DD010000DD010000DD010000F8
S1130090DD010000DD010000DD010000DD010000E4
S11300A0DD010000DD010000DD010000DD010000D4
S11300B0DD010000DD010000DD010000DD010000C4
S11300C0DD010000DD010000DD010000DD010000B4
S11300D0DD010000DD010000DD010000DD010000A4
S11300E010B5054C237833B9044B13B10448AFF36E
S11300F000800123237010BD880000200000000050
S1130100A43E0000084B10B51BB108480849AFF3E2
S113011000800848036803B910BD074B002BFBD0CF
S1130120BDE81040184700BF00000000A43E0000D6
S11301308C0000208400002000000000154B002BE0
S113014008BF134B9D46A3F5803A00218B460F460A
S11301501348144A121A03F039F80F4B002B00D03D
S113016098470E4B002B00D0984700200021040034
S11301700D000D48002802D00C48AFF3008002F0B7
S1130180FFFF2000290002F015FB02F0E5FF00BF8D
S113019000000800008000200000000000000000B3
S11301A088000020E403002000000000000000009C
S11301B0064880470649074A074B9A42BEBF51F892
S11301C0040B42F8040BF8E7FFF7B8FFA1030000A3
S11301D0B03E00000000002088000020FEE700BFC1
S11301E0294AD36A03F47053B3F5805F2AD0B3F578
S11301F0005F24D0B3F5006F11D0D36803F4E0633B
S1130200B3F5007F3DD020D9B3F5806F37D0B3F577
S1130210A06F32D0B3F5407F24D0002301E01B4B04
S11302201B68194A1A4910685268C0F3823002F0F8
S11302300F020130B3FBF0F0D04008607047154B5B
S11302401B68EEE74FF40043EBE76BB1B3F5807F37
S1130250E3D1114B114AD86C114BB0F1985F28BF10
S11302601346DEE70F4BDCE70B4B0F4AD86C0F4B02
S1130270B0F1985F28BF1346D3E70D4BD1E70D4B80
S1130280CFE70D4BCDE700BF00800C4004000020F9
S11302900800002000000020B081E00F40B5640099
S11302A0C0CF6A00809FD500804F120040420F00EB
S11302B0003FAB01406F4001C0D8A7000048704721
S11302C0006CDC02274AD36A03F47053B3F5805FF1
S11302D024D0B3F5005F1ED0B3F5006F11D0D368FE
S11302E003F4E063B3F5007F39D01AD9B3F5806F16
S11302F033D0B3F5A06F2ED0B3F5407F1FD00020CC
S113030001E0194B1868174B1B68C3F382330133A0
S1130310B0FBF3F07047154B1868F4E74FF4004056
S1130320F1E773B1B3F5807FE9D1114A114BD06C79
S1130330114AB0F1985F2CBF18461046E3E70F4806
S1130340E1E70B4A0E4BD06C0E4AB0F1985F2CBF1C
S113035018461046D7E70C48D5E70C48D3E70C48B5
S1130360D1E700BF00800C40040000200000002002
S1130370B081E00F40B56400C0CF6A00809FD50013
S1130380804F120040420F00003FAB01406F40011C
S1130390C0D8A700014B1868704700BF04000020B4
S11303A0034AD2F8883043F47003C2F888307047A7
S11303B000ED00E04FF40040704700BF4FF47A7046
S11303C0704700BF014B1868704700BF0000002051
S11303D0044B1B69DA0702D5034A01211170014A53
S11303E09361704700040140000300200B490A692F
S11303F0D3070FD50A4810B40A4C03682488013384
S1130400A342036024BF02234B60044B5DF8044BFA
S11304109A617047014B9A61704700BF0000014028
S1130420A8000020A400002030B51C481C4C85B056
S1130430012101F03DFA00230A2140F294428DF893
S113044001308DF803308DF804308DF805308DF8C7
S113045006308DF807308DF808308DF809308DF8A6
S11304600A308DF80B308DF80C308DF800308DF893
S11304700210E2616362E3680A4A43F001034FF445
S11304808055E3602046C2F880516946156001F04A
S1130490ABFE0123636005B030BD00BF0062040001
S11304A00004014000E100E010B5194884B00121C6
S11304B001F0FEF91748184A002304218DF8013091
S11304C08DF803308DF804308DF805308DF8063042
S11304D08DF807308DF808308DF809308DF80A3022
S11304E08DF80B308DF80C308DF800308DF802103B
S11304F0C3614362C3684FF4804443F00103C360A3
S11305006946C2F88041146001F06EFE04B010BD6B
S113051000820400000C014000E100E0084A10B42D
S113052001210024D061134654625160596ADA698A
S113053003489142FAD3022343605DF8044B7047A9
S1130540000C01402DE9F043574C87B000250721EA
S113055004224FF000084FF000090123064603204F
S1130560CDE90489ADF804508DF808508DF8095090
S11305708DF80A508DF80B508DF80C50ADF80650DC
S1130580CDE904898DF808508DF809508DF80A508A
S11305908DF80B508DF80C5001F050FCD4F88030DD
S11305A043F08003C4F880304FF4B970FFF7B6FF0E
S11305B04FF4B970FFF7B2FFE36F43F08003E367D2
S11305C01E20FFF7ABFF0520FFF7A8FF012213460B
S11305D00320072101F032FC2246D2F888301906A4
S11305E0FBD50022304BADF80420D3F8880010F07E
S11305F08000FAD12D492C4B4FF6FF720746CA6191
S1130600012402254F624C60D3F888201206FBD5E2
S11306104D604A6A92B2ADF806204F624C60D3F83E
S113062088201206FBD44D604A6A92B2ADF80420C9
S1130630BDF804E0BDF806201FFA8EFE92B296457E
S11306401CD9DDE90489C0F1270204FA02F248EA60
S1130650020849EAE279CDE9048906AAC0F3C40C88
S1130660944400F0070E1CF8108CCEF1070E04FA27
S11306700EF248EA0202D2B20CF8102C01302828FB
S1130680C0D19DF808409DF809009DF80A109DF816
S11306900B209DF80C30707030463470B170F270DD
S11306A0337107B0BDE8F08300600040000C0140E6
S11306B070B40748074E084D084C0949094A0023FD
S11306C033602B60236003600B60136070BC704761
S11306D0C4020020AC000020C8020020B0000020AA
S11306E0D0020020CC02002028B9064B1868B0FACA
S11306F080F040097047044B1868B0FA80F0400954
S1130700704700BFAC000020C402002038B9084B79
S11307101868A0F11000B0FA80F040097047054B4A
S11307201868A0F50070B0FA80F04009704700BF67
S1130730AC000020C402002070B498B101280ED18E
S1130740154A1368002B22DD1449154D0C68601CF2
S1130750013BB0F5007F136008602B5D12D0184692
S113076070BC70470F4A1368002B12DD0E490F4E00
S11307700D686C1C013B102C13600C60735DEED192
S11307800860ECE7002218460A6070BC704700233A
S1130790E5E70346E3E700BFC4020020D0020020DF
S11307A0B4000020AC000020C8020020B4020020E5
S11307B0F0B4B0B1012812D1124A1368B3F5007F26
S11307C00DDA1148114E05686C1C0133B4F5007F35
S11307D01360715508BF0023046008BF0360F0BCB8
S11307E070470B4A13680F2BF9DC0A4C0A4F266832
S11307F0751C0133102D1360B9552560EFD12060AD
S1130800EDE700BFC4020020CC020020B4000020A9
S1130810AC000020B0000020B4020020F0B52A484B
S113082083B0012101F044F80320022101F0BCFA55
S1130830032006210422002301F000FB04200246C9
S11308400321002301F0FAFA0420024602210023C6
S113085001F0F4FA032007210422012301F0EEFA47
S1130860012002460346092101F0E8FA012002466C
S113087003460A2101F0E2FA0124092100940194BB
S113088020460A46002301F09DFA0A2100940194AF
S113089020460A46002301F095FA0C4B0C4A4FF609
S11308A0FF7702264FF40065402408200421C3F892
S11308B01C7116601560C3F88040C3F8A400C3F827
S11308C0A41003B0F0BD00BF00D2040000600040DB
S11308D000E100E00A4AD2F81031D2F814110B40BA
S11308E01905C2F81C3103D49A0505D49B0600D41B
S11308F07047052001F07CBD092001F079BD00BFDF
S113090000600040094AD2F81031D2F814110B40AB
S1130910C2F81C315A0505D4DB0400D470470C20FE
S113092001F066BD0A2001F063BD00BF0060004015
S113093070B5204D204E0FCD86B06C460FC495E89F
S113094003004FF41653002584E803001B48029368
S113095001218DF8005000F0ABFF2946022004224B
S1130960012301F06BFA01212B460A46022001F013
S113097065FA304601F006FD3046694601F094FC04
S1130980726D0F4B42F0030241F6FF717265B16460
S1130990F26C4FF480304FF4004142F00402F264F0
S11309A0C3F88001C3F8801118601960FFF780FE56
S11309B006B070BD503A000000C4004000120400AC
S11309C000E100E00148052101F066BC00C40040DC
S11309D010B50C4C0223A36423695B0600D410BD3C
S11309E00120FFF781FE20B1E36C23F00203E364EE
S11309F010BD0120FFF7A0FE01462046BDE81040CF
S1130A0001F0F0BC00C4004038B50B4C0423A364CF
S1130A1023691B0600D438BD0020FFF777FE054686
S1130A200028F8D1204601F0D7FC01462846BDE84D
S1130A303840FFF7BDBE00BF00C4004038B50446CF
S1130A4002F0F0FB05460120FFF760FE88B915F0BF
S1130A50FF0518BF2D1906D014F8011B0120FFF75C
S1130A60A7FEAC42F8D1034AD36C43F00203D3642B
S1130A7038BD38BD00C4004010B5294C00202146C3
S1130A80024601F0D3FA21460120002201F0CEFAF9
S1130A9021460220002201F0C9FA21460320002247
S1130AA001F0C4FA21460420002201F0BFFA2146D5
S1130AB00520002201F0BAFA21460620002201F0A6
S1130AC0B5FA21460720002201F0B0FA00200246C0
S1130AD0FF2101F015FB0120FF21002201F010FB92
S1130AE00220FF21002201F00BFB0320FF21002242
S1130AF001F006FB0420FF21002201F001FB052088
S1130B00FF21002201F0FCFA0620FF21002201F05F
S1130B10F7FA0720FF210022BDE8104001F0F0BAE7
S1130B2000F00FF010B5314C002021464FF0FF3299
S1130B3001F07CFA214601204FF0FF3201F076FAF1
S1130B40214602204FF0FF3201F070FA21460320C3
S1130B504FF0FF3201F06AFA214604204FF0FF32D1
S1130B6001F064FA214605204FF0FF3201F05EFAED
S1130B70214606204FF0FF3201F058FA21460720A3
S1130B804FF0FF3201F052FA0020FF214FF0FF3204
S1130B9001F0B6FA0120FF214FF0FF3201F0B0FA64
S1130BA00220FF214FF0FF3201F0AAFA0320FF21B7
S1130BB04FF0FF3201F0A4FA0420FF214FF0FF327E
S1130BC001F09EFA0520FF214FF0FF3201F098FA60
S1130BD00620FF214FF0FF3201F092FA0720FF2197
S1130BE04FF0FF32BDE8104001F08ABA00F00FF078
S1130BF010B5274C27490720002201F017FA214697
S1130C000620002201F012FA21460520002201F0FC
S1130C100DFA21460420002201F008FA214603209F
S1130C20002201F003FA21460220002201F0FEF91D
S1130C3021460120002201F0F9F9002002464FF07C
S1130C40204101F0F3F907200146002201F058FA8F
S1130C5006200721002201F053FA05200721002273
S1130C6001F04EFA04200721002201F049FA032082
S1130C700721002201F044FA02200721002201F09A
S1130C803FFA012007210022BDE8104001F038BAE4
S1130C9000E00FF000E00F5010B501210446224897
S1130CA000F006FE2148032100F05CFE40212048AC
S1130CB000F0E4FA012000F0EDFF01211D4800F0EE
S1130CC0F7FD1D4B1D489A6A00229A6201F004F94F
S1130CD00820012101F030F91020012101F02CF944
S1130CE08020012101F028F94FF48070012101F0E6
S1130CF023F94FF40070012101F01EF934B9FFF714
S1130D00BBFE0D4A536E002BFCD110BD4FF44020A6
S1130D1001F060FA4FF4803001F000F9084AD36F13
S1130D2043F00803D367EAE70043020002001A0015
S1130D30600026000036280000A008408C3C00001B
S1130D4000800C402DE9F84F42F20E73984206469B
S1130D5000F3A98010F57A7FD8BF40F2E73600F39C
S1130D60A7804FF00109564A556E554B002DFBD113
S1130D704FF0010AC3F860A0504678212A4601F0DA
S1130D80BFF9022078212A4601F0BAF9032078211C
S1130D902A4601F0B5F9042078212A4601F0B0F979
S1130DA0052078212A4601F0ABF9062078212A464D
S1130DB001F0A6F9072078212A4601F0A1F9414C57
S1130DC0DFF80881404F96FBFAF287FB0231D31714
S1130DD0C3EBA10303EB8303A2EB4303B9F1000FBD
S1130DE05DD19BB238F813B094F8CB1094F8C400DA
S1130DF01BF0010F4FD11BF0020F94F8CC1094F8A4
S1130E00C50044D11BF0040F94F8CD1094F8C6002B
S1130E1039D11BF0080F94F8CE1094F8C7002ED1E6
S1130E201BF0100F94F8CF1094F8C80023D11BF0D6
S1130E30200F94F8D01094F8C90018D11BF0400F7B
S1130E4094F8D11094F8CA000DD101350AEB8A0A3E
S1130E50042D4FEA4A0A04F10E04B4D1184B0022BF
S1130E601A66BDE8F88F012201F072F8EDE701225D
S1130E7001F06EF8E2E7012201F06AF8D7E70122F7
S1130E8001F066F8CCE7012201F062F8C1E7012223
S1130E9001F05EF8B6E7012201F05AF8ABE7032D42
S1130EA09FD110239EE74FF0000942F20F765AE7D4
S1130EB0002EA8BF4FF00009BFF655AF764250E7A9
S1130EC000A008408C3A000067666666683A000035
S1130ED02DE9F843074602F0A5F95E4A8146566EAD
S1130EE05C4B002EFBD101221A66FFF781FE5A4C9F
S1130EF0DFF8688136E06A07217CA07849D42B07A3
S1130F00617CE0784CD4EA06A17C20794FD4AB060E
S1130F10E17C607952D46A06217DA07955D42B06F0
S1130F20617DE07958D4EA05A17D207A5BD4AB05D4
S1130F30E17D607A5ED46A05217EA07A61D42B05B6
S1130F40617EE07A64D4EA04A17E207B67D4AB049A
S1130F50E17E607B6AD40136072E07F1010704F1B4
S1130F601C046DD0B145C8BF3B78A17B2078CCBFB1
S1130F70203B002338F81350EA0766D4AB07E17B23
S1130F806078B8D5012200F0E3FF6A07217CA078DD
S1130F90B5D5012200F0DCFF2B07617CE078B2D5E7
S1130FA0012200F0D5FFEA06A17C2079AFD5012209
S1130FB000F0CEFFAB06E17C6079ACD5012200F0F5
S1130FC0C7FF6A06217DA079A9D5012200F0C0FFE0
S1130FD02B06617DE079A6D5012200F0B9FFEA0570
S1130FE0A17D207AA3D5012200F0B2FFAB05E17DFB
S1130FF0607AA0D5012200F0ABFF6A05217EA07AB9
S11310009DD5012200F0A4FF2B05617EE07A9AD5DC
S1131010012200F09DFFEA04A17E207B97D50122E6
S113102000F096FFAB04E17E607B94D5012201368B
S113103000F08EFF072E07F1010704F11C0491D183
S1131040044B00221A66BDE8F883012200F080FFF9
S113105094E700BF00A008408C3A0000A03C0000C8
S113106042EA012242EA0040704700BF38B5314CE1
S1131070E36F43F04003E36705460520FFF74EFAAC
S1131080D4F8803043F04003C4F88030BC20FFF72C
S113109045FAE36F43F04003E36722461E2400232E
S11310A021E000BF00BF00BF00BF00BFD2F8801026
S11310B041F04001C2F8801000BF00BF00BF00BF74
S11310C000BF00BF00BF00BF00BF00BF00BF00BF24
S11310D000BF00BF00BF00BF00BF00BF00BF00BF14
S11310E00133182B22D0D06F05FA03F140F04000F1
S11310F00902D067D5D500BF00BF00BF00BF00BF45
S113110000BF00BF00BF00BF00BF00BF00BF00BFE3
S113111000BF00BF00BF00BF00BF00BF00BFD2F8C8
S1131120801041F04001C2F88010D4E7013CB6D1F0
S113113038BD00BF0060004008B500F00F03013B5C
S1131140062B65D8DFE803F02539476464550400AD
S1131150464BDB6A03F46033B3F5803F23D0B3F529
S1131160003F6DD0B3F5004F4AD0414B984262D056
S1131170404B984209D13D4B9B6AC3F38103022B38
S113118017D0032B62D0012B48D1BDE80840FFF7EC
S113119011B9364BDB6A03F47053B3F5805F4FD05B
S11311A0B3F5005F2CD1324B984244D0314B984276
S11311B0E1D0BDE80840FFF705B92C4A936A03F073
S11311C00303022BEFD0032B1AD0012B38D0936AE0
S11311D0DA0315D4C9E7254A936A03F00C03082BF4
S11311E0E1D00C2B0CD0042B2AD0936ADB0207D459
S11311F0BBE71E4B1B6813F0805301D0002BB4D007
S11312001B4B984217D01B4B9842B4D0002008BD0A
S1131210174B98420FD0174B9842ACD0144B9842BE
S11312201BD0144B9842F1D1104B9B6A142033FA13
S113123000F016D108BD0D4B9B6A03F003039EE733
S11312400B4B9842F7D00B4B984294D0FEF7C8FF53
S1131250094B1B680133D84008BD044B10209B6A1E
S1131260E5E7BDE80840FFF7A9B800BF00800C40DF
S113127002001A0003001C007800904338B5C0F344
S11312800313013B0C46062B05D8DFE803F00F04DB
S113129004505B9C050038BDA94B984200F0F280D5
S11312A003F50433984200F0D68038BDFFF706F802
S11312B0A44B41F67132DD6BDA635B6803F007031C
S11312C0042B06D8012202FA03F313F0130F40F0A3
S11312D010819D4B984240F2B680052299494B6893
S11312E023F0070313434B600DB10023CB63974AEC
S11312F01368013C23F4E03343EA84341460FEF7BA
S11313006FFF904B41F67132DC6BDA635B6803F07C
S11313100703042B74D8012202FA03F313F0130F0A
S11313206ED0894B984240F2D78004226CE0874A01
S1131330B1FA81F49368C4F11F0423F00F031C4332
S1131340946038BDFEF7BAFF7E4B41F67132DD6B17
S1131350DA635B6803F00703042B06D8012202FA60
S113136003F313F0130F40F0BF80774B984262D918
S1131370052274494B6823F0070313434B600DB1F6
S11313800023CB63FEF79EFF714BB0FBF4F0984251
S11313904ED9704B0121984294BF4FF480704FF4A2
S11313A000706D4B694A19605368B4FA84F423F4ED
S11313B08073184350605368C4F11F0423F00F0373
S11313C01C4354609BE7654B984200F0D8806FD96A
S11313D0634B984200F0A380624B984240F09E8099
S11313E05A4A536DD90740F19080B4FA84F4574AAD
S11313F0936EC4F11F0423F003032343936638BDA3
S1131400514B98420CD905224E494B6823F00703EF
S113141013434B60002C3FF43EAF0023CB6338BD35
S1131420514B524A034493428CBF02220322EBE7FE
S113143000200146B5E74C4B4C4A034493428CBF11
S11314400222032295E7484B484A034493428CBF47
S11314500222032242E73D4A536DD9070BD5B4FA61
S113146084F43A4A136FC4F11F0423F0300343EAAF
S11314700413136738BD136D5B06F0D5136D5B065B
S1131480F9D4ECE7314A536DDD070AD5B4FA84F494
S11314902E4A136FC4F11F0423F00303234313677D
S11314A038BD136D5806F1D5136D5806F9D4EDE720
S11314B0A3F58223984230D1244A536DDD071DD50C
S11314C0B4FA84F4214A936EC4F11F0423F0F003A8
S11314D043EA0413936638BD234B244A03449342DE
S11314E08CBF002201228FE7174B984266D9042251
S11314F03FE7154B984259D90422EFE6136D58077C
S1131500DED5136D5807F9D4DAE7136D5B077FF561
S11315106CAF136D5B07F8D467E738BD38BD0B4A71
S1131520536DDD0724D5B4FA84F4084A936EC4F1EC
S11315301B0423F4405343EA0433936638BD00BFCD
S11315407007160000000C400048E80100800C40C1
S113155000366E01006CDC027800904360261400B3
S11315606000260060062A00FFDB0BFFFF23F40067
S1131570136D5807D7D5136D5807F9D4D3E7134A19
S1131580536DD9070BD5B4FA84F4104A936EC4F1A1
S11315901F0423F4706343EA0423936638BD136D78
S11315A05B07F0D5136D5B07F9D4ECE7084B094AE8
S11315B0034493428CBF002201228FE6044B054A68
S11315C0034493428CBF00220122D2E600800C40E7
S11315D0FFDB0BFFFF23F40000F00F0001380628A7
S11315E052D8DFE800F014243551514604002B4B47
S11315F0DB6A03F46033B3F5803F49D0B3F5003FB1
S113160044D0B3F5004F0CBF092001207047234B91
S1131610DB6A03F47053B3F5805F37D0B3F5005F32
S113162036D0B3F5006F0CBF0420052070471B4B68
S1131630986A00F00300022829D003282AD0012840
S113164024D09B6A13F4803F0CBF01200A2070470A
S1131650124A936A03F00C03082B19D00C2B19D0EF
S1131660042B13D0936A13F4801F0CBF01200A20AB
S113167070470A4B1B6813F080530DD0B3F1805FA1
S11316800CBF0920012070470020704703207047D9
S113169002207047062070470720704700800C40E6
S11316A000F47810B0F5B01F08B500F093800ED8A0
S11316B0B0F5402F7ED021D8B0F5003F76D0B0F5FC
S11316C0802F00F0B08000287BD0002008BDB0F54A
S11316D0081F00F09A8039D8B0F5D01F61D0B0F55A
S11316E0E01F72D0B0F5C01FEFD16448FFF724FDAE
S11316F0634B1B6FC3F30113D84008BDB0F5801FC3
S113170037D0B0F5A01F6ED0B0F5602FDDD15C4BA3
S11317105B6903F4E063B3F5007F00F09E8040F260
S11317208A80B3F5C06F00F0A280B3F5E06F00F0DB
S1131730A080B3F5407FC8D1524A534BD06C534A72
S1131740B0F1985F34BF1846104608BDB0F5201FAD
S113175018D0B0F5281F4FD0B0F5181FB5D14C489C
S1131760FFF7EAFC464B9B6EC3F301330433D840C6
S113177008BD4748FFF7E0FC414B9B6EC3F30313DE
S1131780D84008BD4248FFF7D7FC3D4B9A6EDB6F4B
S1131790C2F3013203F00703D0400133B0FBF3F08E
S11317A008BD3B48BDE80840FFF7C6BCBDE808409B
S11317B0FEF716BD324A136813F0805346D0002B4F
S11317C083D0BDE80840FEF77DBD2C48BDE8084045
S11317D0FFF7B2BC2948FFF7AFFC294B1B6F03F09E
S11317E00303D84008BD2A48FFF7A6FC244B9B6E90
S11317F0C3F30323D84008BD2548FFF79DFC204BC5
S11318009B6E03F00303D84008BD2248FFF7E4FEB3
S1131810032817D00928D4D002287FF456AFBDE896
S11318200840FEF7CFBDFEF74DFD154B9B6803F056
S11318300F03D84008BDF3B1B3F5807F7FF445AF03
S1131840154808BDBDE80840FEF7B4BD536903F46C
S1131850E063B3F5007F7FF462AF0A4A0F4BD06CAC
S11318600F4AB0F1985F34BF1846104608BD0D48C2
S113187008BD0D4808BD0D4808BD00BF03001C008D
S113188000800C40B081E00F40420F00804F1200F6
S113189002001A0007232200C0D8A700C0CF6A00A4
S11318A040B56400003FAB01406F4001809FD5000C
S11318B030B5C0F30323013B83B00446092B0CD895
S11318C0DFE803F01C1E200B0B0D190B0B051B4D41
S11318D0C4F304342C44A400216003B030BD184D7B
S11318E00120184A536DDB07C4F30434F2D4136D9A
S11318F01842FCD1EEE7144D1020F2E7134DE7E750
S1131900134DE5E70191FEF76BFC124B01999842E8
S11319100BD800200546104B0A4A1D6053680F4D32
S113192023F4807318435060D2E70D4B012598428D
S113193094BF4FF480704FF40070ECE7C003E410E0
S1131940C002E41000800C400003E4104000E410E6
S11319502002E41000366E01780090430002E41087
S1131960006CDC0238B500F00F04631E062B0ED8A1
S1131970DFE803F02E14140D0D0E0400032900F00B
S11319809880092900F0CB80022900F0A08038BD9E
S1131990072926D0092900F0A98038BD0139092971
S11319A0F5D801A353F821F0931B0000AF1B0000EE
S11319B0FF1B00008F1900008F190000C71B0000D7
S11319C08F1900008F1900008F190000151C0000EA
S11319D002390329DBD8DFE811F0C2000A00A900AC
S11319E0C7009E4A136823F08053136038BD9C4A95
S11319F00324402399490B621368002BFCD0FEF7A3
S1131A005DFC984B41F67132DD6BDA635B6803F081
S1131A100703042B06D8012202FA03F313F0130F71
S1131A2040F0AD80904B984269D905228D494B68AE
S1131A3023F0070313434B600DB10023CB63874BA3
S1131A408A485C62FFF72CFE894B984254D9894B33
S1131A500121984294BF4FF480704FF40070864B7C
S1131A607E4A1960536823F4807318435060FEF76C
S1131A70B7FB7C4B41F67132DC6BDA635B6803F0D5
S1131A800703042B05D8012202FA03F313F0130F02
S1131A907AD1754B98423AD9052272494B6823F0A2
S1131AA0070313434B60002C3FF471AF0023CB6357
S1131AB038BD6A4B6A4A402119621368002BFCD076
S1131AC0664A60235362D36A9903FCD538BD634BDD
S1131AD06A4A4FF4807119621368002BFCD05F4A84
S1131AE040235362D36AD803FCD538BD5B4A1368DC
S1131AF043F08053136038BD00200146AFE7604BCC
S1131B00604A034493428CBF022203228EE75C4B5B
S1131B105C4A034493428CBF02220322BDE74F4A2E
S1131B2020235362D36A1B04FCD538BD524B4B4C63
S1131B3001221A60636843F480736360FEF72AFC31
S1131B40494B514A9842236896BF23F0600343F0FF
S1131B50600343F020032360022404234AE7474A36
S1131B6004244FF4807345E7434B3C49474A01241E
S1131B701C604B6843F480734B6023463AE73A4B4E
S1131B80984257D9042251E7374B98425AD9042234
S1131B9083E7002002460146022C41D02F498A6A7D
S1131BA022F4801323F00C0303438B6238BD2B4BC8
S1131BB0324A4FF4807119621368002BFCD008205C
S1131BC000220221E8E7FEF70BFB294B984241D99A
S1131BD0284B0125984294BF4FF480724FF4007251
S1131BE0254B1E491D604B68294D23F48073134314
S1131BF001224B600C202A6003210022CCE7174B02
S1131C00174A402119621368002BFCD004200022DB
S1131C100121C1E74FF480104FF480320021BBE76B
S1131C200E48836A23F480330A4323F003031343E7
S1131C30836238BD124B134A034493428CBF002283
S1131C400122F3E60E4B0F4A034493428CBF002259
S1131C50012222E700221546C2E700BF00800C40A3
S1131C609C05904300000C400048E801004302003A
S1131C7000366E01006CDC0278009043A4059043AA
S1131C80FFDB0BFFFF23F4008C0590438405904396
S1131C9010089043054A936D1B0706D4D36F00F0D8
S1131CA0070023F007031843D067704700800C40F7
S1131CB010B4042806D8DFE800F0231B17081F001F
S1131CC0124A13625DF8044B704711480223012441
S1131CD00029F5D00D4B1C62002AF3D00368002BB9
S1131CE0FCD05DF8044B70470A4808230424EFE74E
S1131CF0094880234024EBE7084820231024E7E721
S1131D0007484FF400734FF48074E1E700800C40FF
S1131D10840590438C0590439C059043940590431F
S1131D20A40590431D4A1E4B41F20C011B685158F7
S1131D302DE9F0471646926B1A4F0B4003EA020452
S1131D4023EA02084FF00209FCB100254FF0010A12
S1131D50E3070AFA05F214D5B3683A6003EB0513F6
S1131D602846DB686BB1197AD3F800C081F0010210
S1131D70003118BF01211A72BCF1000F01D05A685A
S1131D80E047640805F10105E2D1B9F1010F03D080
S1131D904FF001094446D7E7BDE8F08700200C4026
S1131DA000300C4008300C4000EBC000800000F113
S1131DB0804000F5C040036823F003031943016029
S1131DC0704700BFF0B5072A9DF814509DF81840DD
S1131DD01DD9DFF864E0A2F108018900DEF8006093
S1131DE007278F40884026EA07010843CEF8000001
S1131DF00E490F4E11448900012000FA02F20B60D3
S1131E00C1F88050C6F81C21C1F80041F0BD094F4B
S1131E104FEA820E3E68072101FA0EF100FA0EF035
S1131E2026EA010108433860E2E700BF4008831056
S1131E30006000400061004004610040F0B5C4004F
S1131E404AB1B3B32518AD0005F1804505F5C04589
S1131E5001268E402E612518AD0005F18045072925
S1131E6005F5C04515D84FEA810E6F680F2606FAAE
S1131E700EF627EA060702FA0EF63E436E603AB9FA
S1131E802044F3B9134B8000034401228A405A6072
S1131E90F0BD01F18046083EAF68B6004FF00F0E6A
S1131EA00EFA06FE27EA0E0702FA06F63E43AE6075
S1131EB0E5E72618074DB600354401268E406E60CE
S1131EC0C9E7800000F1804000F5C04001238B4049
S1131ED00361F0BD106000400F49D0F80CC04A689F
S1131EE0F0B5D0F804E0077A467A048A0D680078E1
S1131EF022F4830323F01F034CEA0E0213433B43F3
S1131F00334325F0010223430A604B6018B10B6888
S1131F1043F001030B60F0BD00A00840054B054AE7
S1131F205B68B0F5803F23F4803308BF43F480330B
S1131F305360704700A00840044A936819B923EA23
S1131F4000009060704718439060704700A00840FC
S1131F5007280BD8DFE800F00B121A2229313904C4
S1131F601F293FDD224B0B449B001A6070471F2939
S1131F7033DC204B0B449B001A6070471F29D4BFED
S1131F801D4B1E4B0B449B001A6070471F29D4BF86
S1131F901B4B1C4B0B449B001A6070471F291CDD14
S1131FA0194B0B449B001A6070471F29D4BF174B71
S1131FB0174B0B449B001A6070471F29D4BF154B65
S1131FC0154B0B449B001A6070471F29D4BF134B59
S1131FD0134B0B449B001A607047124B0B449B003D
S1131FE01A607047104B0B449B001A60704700BF87
S1131FF0E005C5100002C5102002C5108002C510FE
S11320004002C510A002C510C002C5106006C5106C
S11320108005C5108006C510A005C510A006C51012
S1132020C005C5106002C510C006C51010B407284D
S11320300ED8DFE800F0101C28343F4B57042F481B
S1132040D0F8D8300A4023EA01010A43C0F8D82066
S11320505DF8044B7047294C206C01EA020320EA26
S1132060010141EA030222645DF8044B7047234CEA
S1132070606C01EA020320EA010141EA030262649E
S11320805DF8044B70471D4CA06C01EA020320EA82
S1132090010141EA0302A2645DF8044B7047174C46
S11320A0E06C01EA020320EA01021A43E2645DF8EB
S11320B0044B704711485DF8044BD0F8CC300A400B
S11320C023EA01010A43C0F8CC2070470B485DF8AD
S11320D0044BD0F8D0300A4023EA01010A43C0F887
S11320E0D020704705485DF8044BD0F8D4300A403E
S11320F023EA01010A43C0F8D420704700A0084035
S113210010B407280ED8DFE800F0101C28343F4B29
S113211057042F48D0F8C0300A4023EA01010A438B
S1132120C0F8C0205DF8044B7047294C206D01EACB
S1132130020320EA010141EA030222655DF8044B2F
S11321407047234C606D01EA020320EA010141EA71
S1132150030262655DF8044B70471D4CA06D01EAF3
S1132160020320EA010141EA0302A2655DF8044B7F
S11321707047174CE06D01EA020320EA01021A439A
S1132180E2655DF8044B704711485DF8044BD0F8E4
S1132190B4300A4023EA01010A43C0F8B42070476E
S11321A00B485DF8044BD0F8B8300A4023EA01012B
S11321B00A43C0F8B820704705485DF8044BD0F8CE
S11321C0BC300A4023EA01010A43C0F8BC2070472E
S11321D000A00840034A536823F4E01318435060F6
S11321E0704700BF00A008402DE9F04F0C780CB9EF
S11321F002234360CA7891F802B00B7A91F801A0E7
S113220091F8069091F8078091F809C091F80AE0D6
S1132210CF7A0E794D79097B120442EA0B6B4BEAB3
S1132220030343EA8929BAF1000F14BF40230023B2
S113223049EA0828BCF1000F14BF8022002248EAB2
S11322400303BEF1000F43EA020314BF202200225D
S1132250002F43EA020314BF10220022002E43EA97
S1132260020314BF4FF400560026002D43EA060370
S113227014BF4FF080520022002942EA030214BF27
S11322800823002313430022426203600CB101239C
S11322904360BDE8F08F00BFCB4303F005035B0050
S11322A0C360C160704700BF314AF8B504460023DB
S11322B040F6AA6741F2050641F6F9709442E760D8
S11322C00D4623606660A3606361E364A064636594
S11322D04AD0284AA365944243D0274B9C4240D01D
S11322E0AB7C1BB1236843F080432360EB7C1BB1C0
S11322F02B7D43F01003A365298A6B7BEA89686808
S1132300AE682F7B0B431343636018B3202F26D092
S11323101CD9402F18D0602F13D104232168174AE9
S113232021F06001216006FB03F38000216800EBCB
S11323305300B0FBF3F3043B9B011A400F432760A7
S113234062612B78E360F8BD0623E7E7002FF8D13C
S11323501023E3E70A48FFF7A3F9202FD8D1082375
S1132360DCE70023E365BBE72365A365B8E700BFAB
S113237000C0004000C4004000C80040C0FF1F006F
S113238040810400114A002330B441F6F97140F64B
S1132390AA6541F205049042C5600360446083600D
S11323A04361C364816443650CD0094A83659042E8
S11323B004D0084B984201D030BC70470023C36559
S11323C030BC7047036530BC8365704700C0004073
S11323D000C4004000C8004003691B06FCD5C06966
S11323E0C0B2704703695B06FCD54163704700BF08
S11323F00A280AD0092807D1064A13780133DBB228
S1132400072B88BF002313707047034B01221A70F7
S1132410704700BF14000020E8020020A74A137888
S113242010B5072B00F2C780DFE803F0226A7B3E79
S1132430518CA004FEF720FBA14BA24C1A78002A71
S113244040F0C6802278002A00F0DE80012A00F0E5
S11324500881022A00F02381032A00F06F81042AF4
S113246000F0C3809848FEF733FD0023237010BDAD
S1132470934B964C1A7842B122780A32D2B2FA2A95
S113248088BF0022227000221A70FEF7F5FA904BE2
S1132490904A03CB106010465160FEF719FD207876
S11324A0BDE81040FEF74EBC854B8B4C1A7852B1F8
S11324B022780C2A00F096802278102A04BF0C227D
S11324C0227000221A70FEF7D7FA844B11E07C4B7D
S11324D0834C1A7852B122780132D2B22270227817
S11324E0172A84BF0022227000221A70FEF7C4FA51
S11324F07C4B784A03CB1B78106013721046CBE7F1
S11325006F4B794C1A7842B122780A32D2B2FA2A45
S113251088BF0022227000221A70FEF7ADFA734BB6
S1132520B6E7674B724C1A7842B122780A32D2B2BB
S1132530FA2A88BF0022227000221A70FEF79CFA41
S11325406C4BA5E75E4A6C4C13782BB123780133AE
S1132550DBB2002123701170FEF78EFA674B5D4ADF
S113256003CB1B8810601381104695E7FEF784FAAD
S1132570534B634C1A780ABB2278002A53D0012AA1
S113258060D0022A7CD0032A00F0E780042A00F0FD
S1132590F380052A7FF466AF5A4A4E4B106892883E
S11325A018609A801846FEF793FC574BBDE810401C
S11325B01868FEF7C7BB0723137010BD22780132D9
S11325C0D2B2052A88BF0022002122701970D4E7F4
S11325D022780132D2B2042A88BF0022002122705C
S11325E0197030E7102222706BE7484A394B1068A3
S11325F0127918601A711846FEF76AFC3E4BBDE862
S113260010401878FEF79EBB414A324B10689288FE
S113261018609A801846FEF75BFC314BBDE8104009
S11326201878FEF78FBB3B4A2A4B106892881860D3
S11326309A801846FEF74CFC374BBDE810401868EA
S1132640FEF780BB354A234B1068928818609A8045
S11326501846FEF73DFC324BBDE810401868FEF703
S113266071BB304A1B4B1068127918601A711846F6
S1132670FEF72EFC2C4BBDE810401878FEF762BB29
S11326802A4A144B1068928818609A801846FEF7FC
S11326901FFC274BBDE810401868FEF753BB254AC2
S11326A00C4B1068928818609A801846FEF710FC4C
S11326B0214BBDE810401868FEF744BB140000200D
S11326C0E802002016000020983D00000E000020C3
S11326D0603D0000B80300200C000020A03D000075
S11326E009030020AC3D000017000020583D000005
S11326F00D000020683D000008030020B83D0000E4
S1132700D4020020EC3D000018030020903D00009E
S1132710703D0000C43D0000FC020020CC3D0000E0
S1132720DC020020783D000028030020D43D000096
S1132730E4020020803D0000E0020020164A174B0E
S11327401068127918601A711846FEF7C1FB144B11
S1132750BDE810401868FEF7F5BA124A0F4B10682E
S1132760928818609A801846FEF7B2FB0E4BBDE8BB
S113277010401868FEF7E6BA0C4A084B10689288B5
S113278018609A801846FEF7A3FB094BBDE8104079
S11327901868FEF7D7BA00BF883D0000B8030020D0
S11327A0F0020020DC3D000010030020E43D0000A6
S11327B0EC0200202DE9F04F01218DB00A460220E1
S11327C0FFF776FA11200421FFF7CCF8A748DFF8C9
S11327D00C83A74CA74EDFF8E8B2A74DDFF80093AF
S11327E0DFF800A30121FEF749FD0421A348FEF709
S11327F045FD08220992FEF711F804230893FDF71A
S113280053FEFDF711FEFEF793F8FEF7DBF8002008
S1132810FEF742FA099A089BC8F8A4200992C8F85E
S1132820A4300893FEF77EF9FEF726F9099A089B6F
S1132830C8F8A0209248C8F8A030C8F8A430C8F856
S1132840A020FEF745FB8F4BDFF86CE207CB1B881B
S1132850CEF80000AEF80C307046CEF80410CEF876
S11328600820FEF7EBF8884B1878884B1978884BCA
S11328701A78FEF7F5FB874B18601868FEF7F6FB2D
S11328804FF000082378002BFCD0794B4FF0000266
S11328901A7033780133DBB233703378092B48D99B
S11328A0744B7D4983F800807B4BD3E900230132CC
S11328B043F10003C1E900230B46D3E900230023BD
S11328C002F00102134304BF01238BF80030724B62
S11328D03C22D3E90001002300F070F913430AD12C
S11328E06E4B6E4A1B780133DBB2137013783B2BAB
S11328F088BF82F80080684B4FF46162D3E900011D
S1132900002300F05BF9134313D1654BDFF890E12A
S11329101B780133DBB28EF800309EF80030172BA1
S113292000F2E2805E4B1A785E4B1B789A4280F08C
S113293092809BF800307BB95B4B1B782BB99AF8DB
S1132940002099F800309A427AD0FFF767FD99F891
S113295000308AF8003095E70AA885F8018085F8E8
S1132960008085F8028085F8038085F80480FDF7EF
S1132970E9FD0A9A9DF82C302A602B7195F800C065
S1132980697895F802E0EA7868782B78474F034431
S1132990A8781844EB78184402EB0E2E02902A789B
S11329A003906B78A8780090E878019001EB0C21F3
S11329B02879CDF818E00591049039603C4F3D49E1
S11329C0C7F800E03C4800F009FC3B48FEF736F845
S11329D03A4999F80020384800F000FC3648FEF7E0
S11329E02DF82D4B3649D3E90023002B08BFB2F54F
S11329F0E16F81F800809FD1324A3B681268314808
S1132A0031491A4402600A6830489342304A38BF58
S1132A100B6012682E49934288BF0B602B4B2D49E3
S1132A201A68224B1B681A4402600A6893422A4AB5
S1132A3038BF0B6012682849934288BF0B607BE75C
S1132A40154B3C22D3E90001002300F0B7F81343EF
S1132A507FF418AF79E7002001460246FEF700FB39
S1132A600C4B18601868FEF701FB62E75000020087
S1132A70000300201C030020D80300204081040030
S1132A80F43D0000FC3D00000E0000201700002073
S1132A900D00002010000020200300202803002047
S1132AA0090300200C000020E8020020F0020020AE
S1132AB0E00200200C3E000038030020583E0000D5
S1132AC029030020F8020020040300200C03002046
S1132AD0D802002014030020F4020020006000400B
S1132AE01400002015000020224B8EF80080187876
S1132AF0214B1978214B1A78FEF7B2FA204B186053
S1132B001868FEF7B3FA1F4B1F491A780132D2B284
S1132B101A701E4B1A68A1FB02321D4B52091A602F
S1132B201C4B1D4A1B6813601C4B1D4A1B68136019
S1132B30164BC3F80080174BC3F80080174BC3F83B
S1132B400080184B1B68A1FB0323174A5B09136021
S1132B50164B174A1B681360164B174A1B68136001
S1132B60104BC3F80080114BC3F80080114BC3F81D
S1132B700080D7E60E000020170000200D00002082
S1132B801000002008030020ABAAAAAAF802002023
S1132B90FC020020D8020020DC02002004030020F4
S1132BA0E40200200C03002010030020F4020020A3
S1132BB0EC020020140300201803002053B94AB982
S1132BC0002908BF00281CBF4FF0FF314FF0FF3031
S1132BD000F03CB882B0EC462DE9005000F01EF83D
S1132BE0DDF804E002B00CBC704700BF2DE9F041F1
S1132BF0069C154606460F46984600F029F805FB44
S1132C0001F300FB0838A5FB0023B21A434467EB29
S1132C100303C4E90023BDE8F08100BF2DE9F041BE
S1132C20069C904606460F461D4600F05FF900FBE1
S1132C3005F5A0FB082308FB0155B21A2B4467EBEA
S1132C400303C4E90023BDE8F08100BF704700BF5F
S1132C5000292DE9F043C0F2A6800026002BC0F223
S1132C609C80884694469E46154604460F46002B93
S1132C703DD18A4259D9B2FA82F33BB1C3F1200261
S1132C809F4020FA02F29D4017439C40290C220CDD
S1132C90B7FBF1FEA8B201FB1E7742EA074700FB2F
S1132CA00EF3BB420AD97F190EF1FF3280F0058181
S1132CB0BB4240F20281AEF1020E2F44FF1AA4B2CD
S1132CC0B7FBF1F301FB137744EA074700FB03F07A
S1132CD0B84208D97F1903F1FF3280F0F080B8427E
S1132CE040F2ED80023B43EA0E43002203E08B42B4
S1132CF00FD900221346341C18BF012460424FF040
S1132D00000565EB45015840514000196941BDE893
S1132D10F083B3FA83F2002A40F086808B4202D318
S1132D20844500F2DB800123E5E712B90123B3FBFC
S1132D30F2F5B5FA85F000283BD1781B4FEA154E21
S1132D401FFA85FC0122B0FBFEF8210C0EFB1807CC
S1132D5041EA07470CFB08F3BB4207D97F1908F186
S1132D60FF3102D2BB4200F2BD808846FF1AA4B2F2
S1132D70B7FBFEF30EFB137744EA07470CFB03FC97
S1132D80BC4507D97F1903F1FF3102D2BC4500F2DB
S1132D90A7800B4643EA0843ADE752426FEA0606B2
S1132DA063EB43035DE7404261EB41014FF0FF36C3
S1132DB054E7C0F1200224FA02F107FA00F3854037
S1132DC04FEA154ED7401943B7FBFEF20B0C0EFB2E
S1132DD012771FFA85FC43EA07430CFB02F79F4274
S1132DE004FA00F407D95B1902F1FF3074D29F4250
S1132DF072D9023A2B44DF1B89B2B7FBFEF80EFBF3
S1132E00187341EA03430CFB08F79F4208D95B1986
S1132E1008F1FF315CD29F425AD9A8F102082B4431
S1132E20D81B48EA02428EE7C2F120032CFA03F1D0
S1132E300EFA02FE20FA03F741EA0E0E08FA02F037
S1132E4028FA03F14FEA1E453843B1FBF5F8030CA9
S1132E5005FB18111FFA8EF743EA014107FB08F33B
S1132E608B420CFA02FC09D911EB0E0108F1FF396F
S1132E7030D28B422ED9A8F102087144C91A80B20B
S1132E80B1FBF5F305FB131140EA014107FB03F71E
S1132E908F4208D911EB0E0103F1FF3016D28F4295
S1132EA014D9023B714443EA0843C91BA3FB0C89B0
S1132EB0494509D305D000221DE79646FEE6134690
S1132EC011E794404445F6D2013BF4E70346EAE7B0
S1132ED08846A5E7C846D1E702468CE713460AE7C9
S1132EE0023B57E7A8F102082F443FE72DE9F041E0
S1132EF0002B44D18A42154604464FD9B2FA82F7D0
S1132F000E464FB1C7F12003B94020FA03F602FA86
S1132F1007F50E4300FA07F44FEA154E230CB6FBEF
S1132F20FEF0AFB20EFB106143EA014307FB00F170
S1132F30994209D95B1900F1FF3280F0EC80994283
S1132F4040F2E98002382B445A1AA4B2B2FBFEF3D1
S1132F500EFB132244EA024207FB03F7974208D907
S1132F60521903F1FF3180F0D880974240F2D580A6
S1132F70023B43EA004000263146BDE8F0818B4223
S1132F8047D8B3FA83F6002E48D18B4202D382424B
S1132F9000F2CD8001203146BDE8F08112B901254F
S1132FA0B5FBF2F5B5FA85F8B8F1000F77D14A1BF5
S1132FB04FEA154EAFB20126B2FBFEF0230C0EFB16
S1132FC0102143EA014107FB00F38B4207D9491959
S1132FD000F1FF3202D28B4200F2BA801046C91AC5
S1132FE0A4B2B1FBFEF30EFB131144EA014407FB48
S1132FF003F7A74208D9641903F1FF3280F08F80E8
S1133000A74240F28C80023B43EA00403146BDE8CF
S1133010F081002630463146BDE8F081C6F1200437
S113302022FA04F5B3402B4320FA04FC01FA06F714
S113303021FA04F54FEA134E4CEA0707B5FBFEF8F4
S1133040390C0EFB18551FFA83FC41EA05450CFBAD
S113305008F1A94202FA06F204D9ED1808F1FF3486
S113306067D3A0466D1ABFB2B5FBFEF40EFB145530
S113307047EA05410CFB04FC8C4504D9C91804F14A
S1133080FF355CD32C4644EA0844CCEB0101A4FB95
S11330900223994248D344D0204600266CE7C8F165
S11330A0200401FA08F305FA08F520FA04F7E140D0
S11330B04FEA154E1F43B1FBFEF63A0C0EFB1611F8
S11330C01FFA85FC42EA01430CFB06F29A4200FA1D
S11330D008F407D95B1906F1FF3137D29A4235D982
S11330E0023E2B449B1ABFB2B3FBFEF00EFB10331F
S11330F047EA03430CFB00F1994207D95B1900F13D
S1133100FF3221D299421FD902382B445A1A40EA7D
S11331100646674650E7104616E70B4629E713466E
S113312072E7B0409042B7D2601E002624E73046D2
S113313022E7A94295D9A8F102081D4492E78C45DB
S1133140A0D9023C19449EE71046DFE70E46C9E7C2
S11331500238294443E700BF08B5074B044613B1BE
S11331600021AFF30080054B1868836A03B19847C8
S1133170204600F05FFC00BF000000006C3E000031
S113318070B50E4B0E4CE41AA41000251E46A54241
S113319004D056F8253098470135F8E700F04CFC88
S11331A0084C094BE41AA41000251E46A54204D07D
S11331B056F8253098470135F8E770BD7C000020AB
S11331C07C000020800000207C0000200244034694
S11331D0934202D003F8011BFAE770470EB400B51E
S11331E09CB04FF40271ADF814106FF000410491DB
S11331F007914FF6FF711DABADF81610084953F84F
S1133200042B029006900868019302A900F06CF860
S1133210029B00221A701CB05DF804EB03B07047E7
S113322078000020034613F8012B002AFBD1181A5A
S1133230013870472DE9F0478E68B34282460C4648
S11332409046994640D38A8912F4906F3AD0256803
S113325009696F1A6569022305EB450595FBF3F5CA
S11332607B1C4B449D4238BF1D4653050FD5294650
S113327000F03CFB064698B121693A4600F0CBFACF
S1133280A38923F4906343F08003A38113E02A46C7
S113329000F082FB064670B95046216900F0E2FA5C
S11332A00C23CAF80030A38943F04003A3814FF0F4
S11332B0FF30BDE8F087266165613E44ED1B266062
S11332C0A5604E46B14500D24E463246206841467E
S11332D000F0ACFAA3689B1BA36023681E4426601D
S11332E00020BDE8F08700002DE9F0439DB00646BC
S11332F003938B891C060D4690460CD50B6953B974
S1133300402100F0F3FA2860286110B90C233360DF
S1133310CCE040236B610023099320238DF82930EE
S113332030238DF82A3043461C4613F8012B1AB972
S1133330B4EB08090FD002E0252AF5D1F8E73046AE
S1133340294642464B46FFF775FF013000F0A9803D
S1133350099B4B4409932378002B00F0A28000239F
S11333604FF0FF3204930793059206938DF8533080
S11333701A9304F101084446DFF84891217848463D
S1133380052200F039FA08F10108049B30B1C9EBB9
S113339000000122824013430493ECE7D80644BFA3
S11333A020228DF85320190744BF2B228DF8532077
S11333B022782A2A02D0079923460EE0039A111D87
S11333C012680391002ABBBF524243F002030792E2
S11333D00792B8BF049301340AE01C4601332278F3
S11333E0303A092A03D80A2000FB0121F5E70791A6
S11333F023782E2B1AD163782A2B0AD1039B1A1D0A
S11334001B680392002BB8BF4FF0FF3302340593BF
S11334100CE0611C00220C4601312378303B092B5F
S113342003D80A2000FB0232F5E70592DFF8988002
S113343021784046032200F0DFF938B1049AC8EB42
S113344000004023834013430493013421781A4835
S11334508DF82810062204F1010800F0CDF988B196
S1133460164B33B9039B073323F007030833039345
S113347013E003AB0093304604A92A46104BAFF384
S1133480008007E003AB0093304604A92A460C4BA6
S113349000F092F8421C074603D0099B3B44099371
S11334A041E7AB895B0601D4099801E04FF0FF3096
S11334B01DB0BDE8F08300BF7A3E000000000000AC
S11334C035320000703E0000763E00002DE9F843DE
S11334D091461F468A680B69DDF820809342B8BF85
S11334E01346C9F8003091F8432006460C4612B141
S11334F00133C9F800302368990642BFD9F8003077
S11335000233C9F80030256815F006051CD094F87C
S113351043302268003318BF012392061FD5E118F7
S11335205A1C302081F84300224494F8451082F854
S11335304310023313E03046394604F119020123E3
S1133540C047013007D00135E368D9F800209B1A41
S11335509D42F0DBDBE74FF0FF30BDE8F8833046F7
S1133560394604F14302C0470130F4D02268D9F847
S11335700050E36802F00602042A08BF5D1B2269BA
S1133580A3680CBF25EAE57500259342C4BF9B1AC6
S1133590ED184FF00009A9450ADA3046394604F11E
S11335A01A020123C0470130D5D009F10109F2E71D
S11335B00020BDE8F88300002DE9FF410C461746C2
S11335C0227E6E2A984606460A9B01F1430100F0CA
S11335D0AF8012D8632A23D00AD8002A00F0BC8016
S11335E0582A40F0CB8084F84520DFF804E257E005
S11335F0642A1ED0692A1CD0C0E0732A00F0B0806F
S113360009D86F2A2ED0702A40F0B880226842F080
S1133610200222603FE0752A24D0782A3BD0ADE016
S11336201A68111D1960136884F8423004F14205C8
S1133630A8E020681A6810F0800F02D0101D1860EE
S113364008E010F0400F02F10400186002D0B2F953
S1133650003000E01368002B3EDA2D225B4284F830
S1133660432039E020681A6810F0800F02D0101D42
S1133670186007E010F0400F02F10400186001D058
S1133680138800E01368227EDFF864E16F2A0CBF20
S113369008220A221CE07822DFF858E184F8452049
S11336A02268186812F0800F00F104051D6003D130
S11336B0550601D5038800E00368D00744BF42F0F3
S11336C0200222601BB9226822F02002226010220C
S11336D0002084F8430002E0DFF814E10A22656860
S11336E0A560002DA2BF206820F00400206003B96B
S11336F065B10D46B3FBF2F002FB10331EF8033044
S113370005F8013D03460028F4D100E00D46082ADF
S11337100BD12368DA0708D5236962689A42DEBFB1
S1133720302305F8013C05F1FF35491B21612EE0EA
S113373025681A68606915F0800F03D0151D1D6097
S1133740136808E015F0400F02F104051D601368CA
S113375001D0188000E01860002323610D4616E0B4
S11337601A68111D1960156862682846002100F066
S113377043F808B1401B6060636804E004F142054B
S113378084F8422001232361002384F84330CDF8D8
S113379000803046214603AA3B46FFF797FE0130DE
S11337A002D14FF0FF301FE0304639462A462369E4
S11337B0C0470130F5D023689B0705D4E068039B1C
S11337C09842B8BF18460FE00025E368039A9B1A95
S11337D09D42F3DA3046394604F119020123C04709
S11337E00130DED00135F0E704B0BDE8F08100BF60
S11337F0813E0000923E000010B5C9B202449042DE
S1133800034606D01C788C4200F10100F7D118461B
S113381010BD002010BD10B5431E0A44914204D0CF
S113382011F8014B03F8014FF8E710BD814210B5C0
S113383001EB020301D3421E0BE09842FBD2811834
S1133840D21AD34204D013F8014D01F8014DF8E720
S113385010BD994204D011F8014B02F8014FF8E76A
S113386010BD000030B500293DD051F8042C0B1FC9
S11338701D49002AB8BF9B180A680C4612B95A6041
S11338800B6030BD93420DD219685818904201BFA5
S11338905A5852181A6042685A60236030BD9942DF
S11338A003D80A4651680029F9D1146815199D42B4
S11338B00AD11B682344D0188842136013D10868C6
S11338C0034413604B680DE002D90C23036030BD40
S11338D01C681819884204BF08684968596004BF05
S11338E000191860536030BD3003002070B5CC1C43
S11338F024F0030408340C2C38BF0C24002C064696
S113390003DA0C233360002070BD8C42F9D3204AC3
S1133910136810461946A1B10A68121B0ED40B2A6B
S113392003D90A608B188C501FE08B420DBF5A6874
S11339304A685A60026018BF0B4616E00B46496895
S1133940E9E7144D2B681BB9304600F04BF82860AA
S11339503046214600F046F8421C0346D1D0C51C2F
S113396025F0030585420AD11C6003F10B001A1DE2
S113397020F00700821A0AD05142995070BD304697
S1133980E91A00F02FF80130BBD02B46ECE770BDEC
S1133990300300202C030020F8B5074615460E46D8
S11339A021B91146BDE8F840FFF7A0BF1AB9FFF7E7
S11339B059FF2846F8BD00F025F8A8420ED2384633
S11339C02946FFF793FF044650B131462A46FFF7D4
S11339D022FF38463146FFF745FF01E03046F8BD87
S11339E02046F8BD38B5064C00230546084623603A
S11339F000F012F8431C02D1236803B12B6038BDD8
S1133A00E003002051F8040C0028BEBF091851F847
S1133A10043CC01804387047044A05491368002B55
S1133A2008BF0B4618441060184670473403002042
S1133A30E8030020FEE700BFF8B500BFF8BC08BCEF
S1133A409E467047F8B500BFF8BC08BC9E46704758
S1133A50050000000000000000C201000005000095
S1133A6000100000000000003F0006005B004F0053
S1133A7066006D007D0007007F006F0077007C000A
S1133A8039005E0079007100400000000101050763
S1133A90070304020302040605060D0E0E0E0D0DA7
S1133AA00D0D0E0E0E0E0D0D010105070703040288
S1133AB00302040605060F1010100F0F0F0F10104D
S1133AC010100F0F01010507070304020302040687
S1133AD005061112121211111111121212121111E2
S1133AE00101050707030402030204060506131C6B
S1133AF01C1C131313131C1C1C1C1313000105079B
S1133B00060203010302040604051D1E1E1E1D1DDC
S1133B101D1D1E1E1E1E1D1D00010507060203019C
S1133B200302040604051F2020201F1F1F1F20203E
S1133B3020201F1F010105070703040203020406D6
S1133B400506212222222121212122222222212191
S1133B500705020103060423232323232323070544
S1133B600201030604242424242424240705020136
S1133B700306042525252525252507050201030619
S1133B80042626262626262600010702062727279E
S1133B9027270000000000000000131211100F0E70
S1133BA00D0C000000002125242601010304040259
S1133BB003020D0E0D0D0E0D0E0E01010304040281
S1133BC003020F100F0F100F101001010304040261
S1133BD00302111211111211121201010304040241
S1133BE00302131C13131C131C1C00010203040105
S1133BF003021D1E1D1D1E1D1E1E000102030401C5
S1133C0003021F201F1F201F2020010103040402A0
S1133C10030221222121222122220507070404066E
S1133C2005060E0E0D0D0E0E0D0D050707040406F8
S1133C30050610100F0F10100F0F050707040406D8
S1133C4005061212111112121111050707040406B8
S1133C5005061C1C13131C1C13130507060304067A
S1133C6004051E1E1D1D1E1E1D1D0507060304063C
S1133C70040520201F1F20201F1F0507070404061A
S1133C800506222221212222212100000100000018
S1133C90030040000C0000000000000000000000D1
S1133CA00000001180020000000002060000200055
S1133CB039000F00000040150020400400100022CD
S1133CC03F0006005B044F0466046D047D04070096
S1133CD07F046F0400000000000A00008020000040
S1133CE0FFFF7704790A3900B020790071007D0460
S1133CF0760406000E00700A3800B602B6083F00CB
S1133D0073043F08730C6D0401113E003022362801
S1133D10802A6E040922390080080F00010008007F
S1133D20000158107C0458005E04582071040C0CE7
S1133D30740404000E00700C3800541454045C0421
S1133D40730467045004080C78001C001020142825
S1133D50802A0C0848200000525F494E54454E000A
S1133D60475F494E54454E00425F494E54454E000C
S1133D70486F7572730000004D696E730000000097
S1133D8054656D702E00000048756D6900000000D8
S1133D904461797300000000496E76616C696400C7
S1133DA04C45445F6379632E000000004872735FE2
S1133DB06F66662E00000000446179735F6F66666B
S1133DC02E000000545F415647000000545F4D41EF
S1133DD058000000545F4D494E000000485F4156B2
S1133DE047000000485F4D4158000000485F4D49BE
S1133DF04E00000048454C4C4F00000069412077BC
S1133E00696C6C20776F726B0A000000485F493D53
S1133E1025326420485F443D25326420545F493D87
S1133E2025326420545F443D25326420533D25648B
S1133E302025347820433D25327820092068756D8B
S1133E405F76616C3D25336420092074656D705F75
S1133E5076616C3D25336400506978656C206D6F24
S1133E6064653D2532780A004300000018000020F4
S1133E70232D302B2000686C4C006566674546474F
S1133E8000303132333435363738394142434445D2
S1133E904600303132333435363738396162636441
S10B3EA065660000000000004B
S10B3EA894C2FF7F0100000039
S1133EB000800000006CDC02809FD5000CFA8200B8
S1133EC0FFFFFF00070702FA0000000000000000E7
S1133ED000000000000000000000000000000000DE
S1133EE00000000000000000683E00000000000028
S1133EF000000000000000000000000000000000BE
S1133F0000000000000000000000000000000000AD
S1133F10000000000000000000000000000000009D
S1133F20000000000000000018000020050100004F
S10B3F30E100000000000000A4
S90301B14A
